9991    3698NORTH D 20001AANDAHL,   00000000000000000000000000000000000000000000000000000000000000000000000000000000000000000000000000000000000000000000000000001700000000000000000000000000000000000000000000000000000000000000000000000000000000000000000000000000000000000000000000000000000000000000000000000000000000000000000000000000000000000000000000000000000000000000000
9992    40 4VIRGINI 10022ABBITT, W. 00011000000000000000000000000000000000001000100000000010000000000000000000000000000000000000000000000000001161616111116161166666166666661666616671666116166165661161666666611161699669995661929961661111161610000000000000000000000000060600000000000000000000000000000000000000060000000000000000000000000000000000000000006000000000000000006
9994    49 6TEXAS   10001ABBOT      00000000000000000000000000611161616616166661661000000000000000000000000000000000000000000000000000000000000000000000000000000000000000000000000000000000000000000000000000000000000000000000000000000000000000000000000000000000000000000000000000000000000000000000000000000000000000000000000000000000000000000000000000000000000000000000000
99912   47 3NORTH C 10022ABERNETHY  00000000000000000000000000000000000000000000000000000000000000000000000000000000000000000000000000000000000000000000000000000000000000000000000000000000000000000000000000000000000000000000000000000000000000000000000000000000000000000000000000000000000000000000000000000000000000000000000000000000000000000000000000000000000000000000000
99913   46 4MISSISS 10001ABERNETHY  00011000000000000000000000000000000000000000600000000060000000000000000000000000000000000000666161166661161161616111116161166666166666661666617611666116166666661169666666611161111669995661111661691199999920000000000000000000000000060600000000000000000000000000000000000000060000000000000000000000000000000000000000006000000000000000006
99914   1424PENNSYL 20001ACHESON    00000000000000000000000000000000000000000000000999169990000000000000000000000000000000000000000000000000000000000000000000000000000000000000000000000000000000000000000000000000000000000000000000000000000000000000000000000000000000000000000000000000000000000000000000000000000000000000000000000000000000000000000000000000000000000000000
99916   12 5NEW JER 20001ACKERMAN   00000000000000000000000000000000000000000000000000000000169229999161111211111610000000000000000000000000000000000000000000000000000000000000000000000000000000000000000000000000000000000000000000000000000000000000000000000000000000000000000000000000000000000000000000000000000000000000000000000000000000000000000000000000000000000000000
99917   45 3LOUISIA 10021ACKLEN, J.H00111161119966100000000000000000000000000000000000000000000000000000000000000000000000000000000000000000000000000000000000000000000000000000000000000000000000000000000000000000000000000000000000000000000000000000000000000000000000000000000000000000000000000000000000000000000000000000000000000000000000000000000000000000000000000000000
99918   22 4INDIANA 20001ADAIR,     00000000000000000000000001000000000000001000100000000010000000000000000000000000000000000000000000000000000000000000000000011111111117116111161166111166111611611111171166777771119611999000000000000000000000000000000000000000000000000000000000000000000000000000000000000000000000000000000000000000000000000000000000000000000000000000000
99921   22 8INDIANA 10001ADAIR, J.A.00000000000000000000000000000000000000000000000000000006000000000000000000000000000000000000000000000000000000000000000000000000000000000000000000000000000000000000000000000000000000000000000000000000000000000000000000000000000000000000000000000000000000000000000000000000000000000000000000000000000000000000000000000000000000000000000
99927   21 4ILLINOI 20001ADAMS, G.E.00000000000000001116611661166916161161611990100000000000000000000000000000000000000000000000000000000000000000000000000000000000000000000000000000000000000000000000000000000000000000000000000000000000000000000000000000000000000000000000000000000000000000000000000000000000000000000000000000000000000000000000000000000000000000000000000
99933   13 8NEW YOR 10001ADAMS, J.J.00000000000000009999999991000000000000000000000000000000000000000000000000000000000000000000000000000000000000000000000000000000000000000000000000000000000000000000000000000000000000000000000000000000000000000000000000000000000000000000000000000000000000000000000000000000000000000000000000000000000000000000000000000000000000000000000
99936   14 2PENNSYL 20022ADAMS, R.  00000000000000000000000000000000000000000000000999196110000000000000000000000000000000000000000000000000000000000000000000000000000000000000000000000000000000000000000000000000000000000000000000000000000000000000000000000000000000000000000000000000000000000000000000000000000000000000000000000000000000000000000000000000000000000000000
99939   4  2NEW HAM 20001ADAMS, S.  00000000000000000000000000000000000000000000000000000000000000000000000000000000000000000000000000011176600000000000000000000000000000000000000000000000000000000000000000000000000000000000000000000000000000000000000000000000000000000000000000000000000000000000000000000000000000000000000000000000000000000000000000000000000000000000000
99940   5111KENTUCK 20001ADAMS, S.  00000000000000000000000000000000000000000009116000000000000000000000000000000000000000000000000000000000000000000000000000000000000000000000000000000000000000000000000000000000000000000000000000000000000000000000000000000000000000000000000000000000000000000000000000000000000000000000000000000000000000000000000000000000000000000000000
99944   44 4GEORGIA 10001ADAMSON    00000000000000000000000000000000000000000000000558611666000000000000000000000000000000000000000000000000000000000000000000000000000000000000000000000000000000000000000000000000000000000000000000000000000000000000000000000000000000000000000000000000000000000000000000000000000000000000000000000000000000000000000000000000000000000000000
99946   1211NEW JER 10001ADDONIZIO, 00000000000000000000000000000000000000001000100000000000000000000000000000000000000000000000000000000000007616161666661616611611611112116111100000000000000000000000000000000000000000000000000000000000000000000000000000000000000000000000000000000000000000000000000000000000000000000000000000000000000000000000000000000000000000000000000
99951   48 3SOUTH C 10001AIKEN, D.W.66111161119966169961169116000000000000000000000000000000000000000000000000000000000000000000000000000000000000000000000000000000000000000000000000000000000000000000000000000000000000000000000000000000000000000000000000000000000000000000000000000000000000000000000000000000000000000000000000000000000000000000000000000000000000000000000
99954   48 3SOUTH C 10001AIKEN, W.  00000000000000000000000000000000000000000000000000000006000000000000000000000000000000000000000000000000000000000000000000000000000000000000000000000000000000000000000000000000000000000000000000000000000000000000000000000000000000000000000000000000000000000000000000000000000000000000000000000000000000000000000000000000000000000000000
99955   1414PENNSYL 20022AINEY, W.D.00000000000000000000000000000000000000000000000000000000000000000000000000000000000000000000000000000000000000000000000000000000000000000000000000000000000000000000000000000000000000000000000000000000000000000000000000000000000000000000000000000000000000000000000000000000000000000000000000000000000000000000000000000000000000000000000
99958   23 6MICHIGA 20001AITKEN, D. 00000000000000000000000000000000000000000009116000000000000000000000000000000000000000000000000000000000000000000000000000000000000000000000000000000000000000000000000000000000000000000000000000000000000000000000000000000000000000000000000000000000000000000000000000000000000000000000000000000000000000000000000000000000000000000000000
99960   1325NEW YOR 21301AKIN, T.   00000000000000000000000000000000000000000000000000000000000000000000000000000000000000000000000000000000000000000000000000000000000000000000000000000000000000000000000000000000000000000000000000000000000000000000000000000000000000000000000000000000000000000000000000000000000000000000000000000000000000000000000000000000000000000000000
99961   24 4OHIO    20052ALBAUGH    00000000000000000000000000000000000000000000000000000000000000000000000000000000000000000000000000000000000000000000000000000000000000000000000000000000000000000000000000000000000000000000000000000000000000000000000000000000000000000000000000000000000000000000000000000000000000000000000000000000000000000000000000000000000000000000000
99962   53 3OKLAHOM 10001ALBERT, C. 00011000000000000000000001000000000000001000100000000010000000000000000000000000000000000000000000000000066616116111116161166666161161166116166111111611616111116619611111116116666111161100600000000000000100000000000000000000000000060600000000000000000000000000000000000000060000000000000000000000000000000000000000006000000000000000006
99968   56 3WEST VI 10001ALDERSON   00000000000000000000000000611161616616166991661000000000000000000000000000000000000000000000000000000000000000000000000000000000000000000000000000000000000000000000000000000000000000000000000000000000000000000000000000000000000000000000000000000000000000000000000000000000000000000000000000000000000000000000000000000000000000000000000
99970   21 1ILLINOI 20001ALDRICH, J.00000000000000000000000000000000000000000009116000000000000000000000000000000000000000000000000000000000000000000000000000000000000000000000000000000000000000000000000000000000000000000000000000000000000000000000000000000000000000000000000000000000000000000000000000000000000000000000000000000000000000000000000000000000000000000000000
99971   5  1RHODE I 20001ALDRICH, N.00000016666699600000000000000000000000000000000000000000000000000000000000000000000000000000000000000000000000000000000000000000000000000000000000000000000000000000000000000000000000000000000000000000000000000000000000000000000000000000000000000000000000000000000000000000000000000000000000000000000000000000000000000000000000000000000
99974   21 1ILLINOI 20001ALDRICH, W.91666916666611610000000000000000000000000000000000000000000000000000000000000000000000000000000000000000000000000000000000000000010000000110000000000000000000000000000000000000000000000000000000000000000000000000000000000000000000000000000000000000000000000000000000000000000000000000000000000000000000000000000000000000000000000000000
99975   41 4ALABAMA 20021ALDRICH    00000000000000000000000000000000000000000000000000166110000000000000000000000000000000000000000000000000000000000000000000000000000000000000000000000000000000000000000000000000000000000000000000000000000000000000000000000000000000000000000000000000000000000000000000000000000000000000000000000000000000000000000000000000000000000000000
99976   24 7OHIO    10001ALESHIRE   00000000000000000000000000000000000000000000000000000000000000000000000000000001161000000000000000000000000000000000000000000000000000000000000000000000000000000000000000000000000000000000000000000000000000000000000000000000000000000000000000000000000000000000000000000000000000000000000000000000000000000000000000000000000000000000000
99978   34 2MISSOUR 10001ALEXANDER, 00000000000000006661166116000000000000000000000000000000000000000000000000000000000000000000000000000000000000000000000000000000000000000000000000000000000000000000000000000000000000000000000000000000000000000000000000000000000000000000000000000000000000000000000000000000000000000000000000000000000000000000000000000000000000000000000
99979   1333NEW YOR 20001ALEXANDER  00000000000000000000000000000000000000000000000111166119000000000000000000000000000000000000000000000000000000000000000000000000000000000000000000000000000000000000000000000000000000000000000000000000000000000000000000000000000000000000000000000000000000000000000000000000000000000000000000000000000000000000000000000000000000000000000
99982   47 9NORTH C 10001ALEXANDER  00011000000000000000000000000000000000000000600000000060000000000000000000000000000000000000000000000000000000000000000000000066166666661665600000660000060600000000000000000000000060000000000000000000000000000000000000000000000000060600000000000000000000000000000000000000060000000000000000000000000000000000000000006000000000000000006
99985   33 3MINNESO 20001ALEXANDER  00000000000000000000000000000000000000000000000000000000000000000000000000000000000110000000000000000000000000000000000000000000000000000000000000000000000000000000000000000000000000000000000000000000000000000000000000000000000000000000000000000000000000000000000000000000000000000000000000000000000000000000000000000000000000000000000
99986   34 3MISSOUR 10001ALEXANDER, 00000000000000000000000000000000000000000000000000000006900000000000000000000000000000000000000000000000000000000000000000000000000000000000000000000000000000000000000000000000000000000000000000000000000000000000000000000000000000000000000000000000000000000000000000000000000000000000000000000000000000000000000000000000000000000000000
99990   47 6NORTH C 10001ALEXANDER  00000000000000000000000000000000000000000001661000000000000000000000000000000000000000000000000000000000000000000000000000000000000000000000000000000000000000000000000000000000000000000000000000000000000000000000000000000000000000000000000000000000000000000000000000000000000000000000000000000000000000000000000000000000000000000000000
99992   42 5ARKANSA 32901ALFORD     00000000000000000000000000000000000000000000000000000000000000000000000000000000000000000000000000000000000000000000000000000000000006661666600000000000000000000000000000000000000000000000000000000000000000000000000000000000000000000000000000000000000000000000000000000000000000000000000000000000000000000000000000000000000000000000000
99993   49 5TEXAS   20001ALGER      00011000000000000000000000000000000000000000600000000060000000000000000000000000000000000000000000000000000000000000000000000066165566661666661666660000060600000000000000000000000060000000000000000000000000000000000000000000000000060600000000000000000000000000000000000000060000000000000000000000000000000000000000006000000000000000006
99997   24 2OHIO    10001ALLEN, A.G.00000000000000000000000000000000000000000000000000000000000000000000000000000000000000000000000000000000000000000000000000000000000000000000000000000000000000000000000000000000000000000000000000000000000000000000000000000000000000000000000000000000000000000000000000000000000000000000000000000000000000000000000000000000000000000000000
99998   2  1MAINE   20002ALLEN, A.L.00000000000000000000000000000000000000000000000111166119000000000000000000000000000000000000000000000000000000000000000000000000000000000000000000000000000000000000000000000000000000000000000000000000000000000000000000000000000000000000000000000000000000000000000000000000000000000000000000000000000000000000000000000000000000000000000
999100  45 8LOUISIA 10001ALLEN, A.L.00000000000000000000000000000000000000000000000000000000000000000000000000000006616651199666666161156661161161616111225252256700000000000000000000000000000000000000000000000000000000000000000000000000000000000000000000000000000000000000000000000000000000000000000000000000000000000000000000000000000000000000000000000000000000000000000
999102  3  8MASSACH 20001ALLEN      00000000000000000000000000000000000000000000000000000000000000000000000000000000000000000000000000000000000000000000000000000000000000000000000000000000000000000000000000000000000000000000000000000000000000000000000000000000000000000000000000000000000000000000000000000000000000000000000000000000000000000000000000000000000000000000000
999104  23 2MICHIGA 20001ALLEN      00000000000000000000000000166616161161611160100000000000000000000000000000000000000000000000000000000000000000000000000000000000000000000000000000000000000000000000000000000000000000000000000000000000000000000000000000000000000000000000000000000000000000000000000000000000000000000000000000000000000000000000000000000000000000000000000
999109  51 2KENTUCK 10001ALLEN, H.D.00000000000000000000000000000000000000000000000666888880000000000000000000000000000000000000000000000000000000000000000000000000000000000000000000000000000000000000000000000000000000000000000000000000000000000000000000000000000000000000000000000000000000000000000000000000000000000000000000000000000000000000000000000000000000000000000
999116  71 7CALIFOR 20001ALLEN, J.  00000000000000000000000000000000000000001000100000000000000000000000000000000000000000000000000000000000016616161777661611611611617770000000000000000000000000000000000000000000000000000000000000000000000000000000000000000000000000000000000000000000000000000000000000000000000000000000000000000000000000000000000000000000000000000000000
999117  46 1MISSISS 10001ALLEN      00000000000000000000000000911161616619166619661666999990000000000000000000000000000000000000000000000000000000000000000000000000000000000000000000000000000000000000000000000000000000000000000000000000000000000000000000000000000000000000000000000000000000000000000000000000000000000000000000000000000000000000000000000000000000000000000
999121  2113ILLINOI 20001ALLEN, L.F.00000000000000000000000000000000000000001000100000000000000000000000000000000009961119761111111161111116617616177661116161161111611117116111000000000000000000000000000000000000000000000000000000000000000000000000000000000000000000000000000000000000000000000000000000000000000000000000000000000000000000000000000000000000000000000000000
999127  1428PENNSYL 10001ALLEN, R.G.00000000000000000000000000000000000000000000000000000000000000000000000000000006111160000000000000000000000000000000000000000000000000000000000000000000000000000000000000000000000000000000000000000000000000000000000000000000000000000000000000000000000000000000000000000000000000000000000000000000000000000000000000000000000000000000000
999129  34 2MISSOUR 10011ALLEN, T.  00000000000000090000000000000000000000000000000000000000000000000000000000000000000000000000000000000000000000000000000000000000000000000000000000000000000000000000000000000000000000000000000000000000000000000000000000000000000000000000000000000000000000000000000000000000000000000000000000000000000000000000000000000000000000000000000
999132  11 1DELAWAR 10001ALLEN, W.F.00000000000000000000000000000000000000000000000000000000000000000000000000000001161000000000000000000000000000000000000000000000000000000000000000000000000000000000000000000000000000000000000000000000000000000000000000000000000000000000000000000000000000000000000000000000000000000000000000000000000000000000000000000000000000000000000
999143  41 8ALABAMA 10001ALMON      00000000000000000000000000000000000000000000000000000000699559999616616666666160000000000000000000000000000000000000000000000000000000000000000000000000000000000000000000000000000000000000000000000000000000000000000000000000000000000000000000000000000000000000000000000000000000000000000000000000000000000000000000000000000000000000000
999144  40 6VIRGINI 10022ALMOND, J. 00000000000000000000000000000000000000000000000000000000000000000000000000000000000000000000000000000061160000000000000000000000000000000000000000000000000000000000000000000000000000000000000000000000000000000000000000000000000000000000000000000000000000000000000000000000000000000000000000000000000000000000000000000000000000000000000
999151  1411PENNSYL 10001AMERMAN    00000000000000000000000000000000000000000000000000000000000000000000000000000000000000000000000000000000000000000000000000000000000000000000000000000000000000000000000000000000000000000000000000000000000000000000000000000000000000000000000000000000000000000000000000000000000000000000000000000000000000000000000000000000000000000000000
999153  3  5MASSACH 20001AMES, B.   00000000000000000000000000000000000000000000000000000001000000000000000000000000000000000000000000000000000000000000000000000000000000000000000000000000000000000000000000000000000000000000000000000000000000000000000000000000000000000000000000000000000000000000000000000000000000000000000000000000000000000000000000000000000000000000000
999156  25 1WISCONS 37001AMLIE      00000000000000000000000000000000000000000000000000000000000000000000000000000006261000000000000000000000000000000000000000000000000000000000000000000000000000000000000000000000000000000000000000000000000000000000000000000000000000000000000000000000000000000000000000000000000000000000000000000000000000000000000000000000000000000000000
999158  33 7MINNESO 20001ANDERSEN   00000000000000000000000000000000000000001000100000000000000000000000000000000000000117761111111161911117716616161666661111161111111161116171600000000000000000000000000000000000000000000000000000000000000000000000000000000000000000000000000000000000000000000000000000000000000000000000000000000000000000000000000000000000000000000000000
999159  31 8IOWA    33101ANDERSON, A00000000000000000000000000000000000000000000000000000000000000000000000000000000000000000000000000000000000000000000000000000000000000000000000000000000000000000000000000000000000000000000000000000000000000000000000000000000000000000000000000000000000000000000000000000000000000000000000000000000000000000000000000000000000000000000000
999161  2413OHIO    10001ANDERSON,  00000000000000000000000000000000000000000000000000000001000000000000000000000000000000000000000000000000000000000000000000000000000000000000000000000000000000000000000000000000000000000000000000000000000000000000000000000000000000000000000000000000000000000000000000000000000000000000000000000000000000000000000000000000000000000000000
999162  46 5MISSISS 10001ANDERSON, C00000000000000000000000000611161616616166990000000000000000000000000000000000000000000000000000000000000000000000000000000000000000000000000000000000000000000000000000000000000000000000000000000000000000000000000000000000000000000000000000000000000000000000000000000000000000000000000000000000000000000000000000000000000000000000000000
999163  3412MISSOUR 10001ANDERSON   00000000000000000000000000000000000000000000000000000000000000000000000000000001161110000000000000000000000000000000000000000000000000000000000000000000000000000000000000000000000000000000000000000000000000000000000000000000000000000000000000000000000000000000000000000000000000000000000000000000000000000000000000000000000000000000000
999165  66 1NEW MEX 10001ANDERSON, C00000000000000000000000000000000000000000000000000000000000000000000000000000000000001199119111611677700000000000000000000000000000000000000000000000000000000000000000000000000000000000000000000000000000000000000000000000000000000000000000000000000000000000000000000000000000000000000000000000000000000000000000000000000000000000000000
999166  2112ILLINOI 10001ANDERSON, G00000000000000000000000000000000000000000000000000000000000000000000000000000000000000000000000000000000000000000000000000000000000000000000000000000000000000000000000000000000000000000000000000000000000000000000000000000000000000000000000000000000000000000000000000000000000000000000000000000000000000000000000000000000000000000000000
999172  32 1KANSAS  20001ANDERSON   00000016666611619116611611196616161161611160100000000000000000000000000000000000000000000000000000000000000000000000000000000000000000000000000000000000000000000000000000000000000000000000000000000000000000000000000000000000000000000000000000000000000000000000000000000000000000000000000000000000000000000000000000000000000000000000000
999173  71 8CALIFOR 20001ANDERSON, J00000000000000000000000000000000000000000000000000000000000000000000000000000000000111199111111616611167716616161677761611166600000000000000000000000000000000000000000000000000000000000000000000000000000000000000000000000000000000000000000000000000000000000000000000000000000000000000000000000000000000000000000000000000000000000000000
999177  64 2MONTANA 10001ANDERSON  L00000000000000000000000000000000000000001000100000000000000000000000000000000000000000000000000000000000000000000000000000000001611117777776000000000000000000000000000000000000000000000000000000000000000000000000000000000000000000000000000000000000000000000000000000000000000000000000000000000000000000000000000000000000000000000000000
999182  33 1MINNESO 20001ANDERSON   00000000000000000000000000000000000000000000000000000000161111611999991111999990000000000000000000000000000000000000000000000000000000000000000000000000000000000000000000000000000000000000000000000000000000000000000000000000000000000000000000000000000000000000000000000000000000000000000000000000000000000000000000000000000000000000000
999188  33 1MINNESO 20001ANDRESEN   00000000000000000000000000000000000000001000100000000000000000000000000000000006161171161111221161177766616161615671661111161211111100000000000000000000000000000000000000000000000000000000000000000000000000000000000000000000000000000000000000000000000000000000000000000000000000000000000000000000000000000000000000000000000000000000000
999189  3  6MASSACH 20022ANDREW, A.P00000000000000000000000000000000000000000000000000000000061111611999911111111610000000000000000000000000000000000000000000000000000000000000000000000000000000000000000000000000000000000000000000000000000000000000000000000000000000000000000000000000000000000000000000000000000000000000000000000000000000000000000000000000000000000000000
999191  3  3MASSACH 10001ANDREW     00000000000000000000000000611151616616166660000000000000000000000000000000000000000000000000000000000000000000000000000000000000000000000000000000000000000000000000000000000000000000000000000000000000000000000000000000000000000000000000000000000000000000000000000000000000000000000000000000000000000000000000000000000000000000000000000
999195  41 3ALABAMA 10022ANDREWS, G.00011000000000000000000000000000000000000000600000000060000000000000000000000000000000000000000000055561161161616111116161166666166666661666616611666116166696652251766666611161195666995661111600000000000000000000000000000000000000060600000000000000000000000000000000000000060000000000000000000000000000000000000000006000000000000000006
999200  1340NEW YOR 20001ANDREWS    00000000000000000000000000000000000000000000000000000000000000000000000000000006195169161111111621617116710000000000000000000000000000000000000000000000000000000000000000000000000000000000000000000000000000000000000000000000000000000000000000000000000000000000000000000000000000000000000000000000000000000000000000000000000000000000000
999201  35 5NEBRASK 20001ANDREWS, W.00000000000000000000000000000000000000000000000000000000161111611161111111111610000000000000000000000000000000000000000000000000000000000000000000000000000000000000000000000000000000000000000000000000000000000000000000000000000000000000000000000000000000000000000000000000000000000000000000000000000000000000000000000000000000000000000
999203  52 1MARYLAN 20001ANDREWS, W.00000000000000000000000000000000000000000000000000000000900000000000000000000000000000000000000000000000000000000000000000000000000000000000000000000000000000000000000000000000000000000000000000000000000000000000000000000000000000000000000000000000000000000000000000000000000000000000000000000000000000000000000000000000000000000000000
999204  1319NEW YOR 20001ANDRUS, J. 00000000000000000000000000000000000000000000000000000009000000000000000000000000000000000000000000000000000000000000000000000000000000000000000000000000000000000000000000000000000000000000000000000000000000000000000000000000000000000000000000000000000000000000000000000000000000000000000000000000000000000000000000000000000000000000000
999205  13 8NEW YOR 10001ANFUSO,    00000000000000000000000000000000000000001000100000000000000000000000000000000000000000000000000000000000000000000000000000001511617712116111100000000000000000000000000000000000000000000000000000000000000000000000000000000000000000000000000000000000000000000000000000000000000000000000000000000000000000000000000000000000000000000000000
999207  72 3OREGON  20001ANGELL     00000000000000000000000000000000000000000000000000000000000000000000000000000000000111161777111161117116616616161666661616117100000000000000000000000000000000000000000000000000000000000000000000000000000000000000000000000000000000000000000000000000000000000000000000000000000000000000000000000000000000000000000000000000000000000000000
999209  24 5OHIO    10001ANSBERRY,  00000000000000000000000000000000000000000000000000000009000000000000000000000000000000000000000000000000000000000000000000000000000000000000000000000000000000000000000000000000000000000000000000000000000000000000000000000000000000000000000000000000000000000000000000000000000000000000000000000000000000000000000000000000000000000000000
999210  1321NEW YOR 20001ANSORGE, M.00000000000000000000000000000000000000000000000000000000061111611161111111111610000000000000000000000000000000000000000000000000000000000000000000000000000000000000000000000000000000000000000000000000000000000000000000000000000000000000000000000000000000000000000000000000000000000000000000000000000000000000000000000000000000000000000
999211  32 1KANSAS  20001ANTHONY, D.00000000000000000000000000000000000000000000000000000001961198619161911112119610000000000000000000000000000000000000000000000000000000000000000000000000000000000000000000000000000000000000000000000000000000000000000000000000000000000000000000000000000000000000000000000000000000000000000000000000000000000000000000000000000000000000000
999214  49 9TEXAS   10022ANTONY     00000000000000000000000000000000000000000000000000000000000000000000000000000000000000000000000000000000000000000000000000000000000000000000000000000000000000000000000000000000000000000000000000000000000000000000000000000000000000000000000000000000000000000000000000000000000000000000000000000000000000000000000000000000000000000000000
999217  12 3NEW JER 20001APPLEBY, T.00000000000000000000000000000000000000000000000000000000099229999299911111111610000000000000000000000000000000000000000000000000000000000000000000000000000000000000000000000000000000000000000000000000000000000000000000000000000000000000000000000000000000000000000000000000000000000000000000000000000000000000000000000000000000000000000
999221  3  4MASSACH 20001APSLEY, L. 00000000000000000000000000000000000000000009116000000000000000000000000000000000000000000000000000000000000000000000000000000000000000000000000000000000000000000000000000000000000000000000000000000000000000000000000000000000000000000000000000000000000000000000000000000000000000000000000000000000000000000000000000000000000000000000000
999226  2117ILLINOI 20001ARENDS     00000000000000000000000001000000000000001000100000000010000000000000000000000006261111177111111161111116616161161661275257167111611111127217161266111166111161661119111166111161166611119611116161161116166611166161111119911600000000000000000000000000000000000000000000000000000000000000000000000000000000000000000000000000000000000000000
999228  65 1NEVADA  20001ARENTZ, S.S00000000000000000000000000000000000000000000000000000000061111611161119111111610000000000000000000000000000000000000000000000000000000000000000000000000000000000000000000000000000000000000000000000000000000000000000000000000000000000000000000000000000000000000000000000000000000000000000000000000000000000000000000000000000000000000000
999229  47 7NORTH C 10001ARMFIELD   00000061116699990000000000000000000000000000000000000000000000000000000000000000000000000000000000000000000000000000000000000000000000000000000000000000000000000000000000000000000000000000000000000000000000000000000000000000000000000000000000000000000000000000000000000000000000000000000000000000000000000000000000000000000000000000000
999235  34 6MISSOUR 20001ARMSTRONG, 00000000000000000000000000000000000000000000000000000000000000000000000000000000000000000000000000000000000000000000000000006100000000000000000000000000000000000000000000000000000000000000000000000000000000000000000000000000000000000000000000000000000000000000000000000000000000000000000000000000000000000000000000000000000000000000000
999242  2123ILLINOI 10001ARNOLD     00000000000000000000000000000000000000000000000000000000000000000000000000000001161119961777000000000000000000000000000000000000000000000000000000000000000000000000000000000000000000000000000000000000000000000000000000000000000000000000000000000000000000000000000000000000000000000000000000000000000000000000000000000000000000000000000
999244  3414MISSOUR 10001ARNOLD     00000000000000000000000000000000000000000001661000000000000000000000000000000000000000000000000000000000000000000000000000000000000000000000000000000000000000000000000000000000000000000000000000000000000000000000000000000000000000000000000000000000000000000000000000000000000000000000000000000000000000000000000000000000000000000000000
999248  34 1MISSOUR 20001ARNOLD     00000000000000000000000000000000000000000000000000000000000000000000000000000000000000000000111161117616610000000000000000000000000000000000000000000000000000000000000000000000000000000000000000000000000000000000000000000000000000000000000000000000000000000000000000000000000000000000000000000000000000000000000000000000000000000000000
999250  5  2RHODE I 20001ARNOLD     00000000000000000000000000166916161161611990100000000000000000000000000000000000000000000000000000000000000000000000000000000000000000000000000000000000000000000000000000000000000000000000000000000000000000000000000000000000000000000000000000000000000000000000000000000000000000000000000000000000000000000000000000000000000000000000000
999251  1428PENNSYL 20001ARNOLD     00000000000000000000000000000000000000000000000000000000000000000000000000000000000000000000000000000000000000000000000000000000000000000000000000000000000000000000000000000000000000000000000000000000000000000000000000000000000000000000000000000000000000000000000000000000000000000000000000000000000000000000000000000000000000000000000
999253  1329NEW YOR 10001ARNOT, J.  00000000000000009999999999000000000000000000000000000000000000000000000000000000000000000000000000000000000000000000000000000000000000000000000000000000000000000000000000000000000000000000000000000000000000000000000000000000000000000000000000000000000000000000000000000000000000000000000000000000000000000000000000000000000000000000000
999258  2417OHIO    10001ASHBROOK,  00000000000000000000000000000000000000000000000000000009100000000000000000000009161000000000000000000000000000000000000000000000000000000000000000000000000000000000000000000000000000000000000000000000000000000000000000000000000000000000000000000000000000000000000000000000000000000000000000000000000000000000000000000000000000000000000
999267  24 9OHIO    10001ASHLEY     00000000000000000000000001000000000000001000100000000010000000000000000000000000000000000000000000000000000000000000000000000011611111116116266111119611619112116616611111716116666111161116666116116666616166961616666661666166666661611161611116166661116619969666616999900000000000000000000000000000000000000000000000000000000000000000000
999270  48 4SOUTH C 10001ASHMORE    00011000000000000000000000000000000000000000600000000060000000000000000000000000000000000000000000000000000000000000000000000066166666661666616611666116166666661161666655712750000060000000000000000000000000000000000000000000000000060600000000000000000000000000000000000000060000000000000000000000000000000000000000006000000000000000006
999275  62 4COLORAD 10001ASPINALL,  00000000000000000000000001000000000000001000100000000010000000000000000000000000000000000000000000000000006616161666661616161661611111116126176111111661616191266169611166175721119119999616666661161116166610000000000000000000000000000000000000000000000000000000000000000000000000000000000000000000000000000000000000000000000000000000000
999276  45 8LOUISIA 10001ASWELL     00000000000000000000000000000000000000000000000000000000619558199616666666666160000000000000000000000000000000000000000000000000000000000000000000000000000000000000000000000000000000000000000000000000000000000000000000000000000000000000000000000000000000000000000000000000000000000000000000000000000000000000000000000000000000000000000
999280  2414OHIO    10001ATHERTON   00000052191199990000000000000000000000000000000000000000000000000000000000000000000000000000000000000000000000000000000000000000000000000000000000000000000000000000000000000000000000000000000000000000000000000000000000000000000000000000000000000000000000000000000000000000000000000000000000000000000000000000000000000000000000000000000
999281  34 6MISSOUR 20001ATKESON, W.00000000000000000000000000000000000000000000000000000000099999999299911111111610000000000000000000000000000000000000000000000000000000000000000000000000000000000000000000000000000000000000000000000000000000000000000000000000000000000000000000000000000000000000000000000000000000000000000000000000000000000000000000000000000000000000000
999282  54 8TENNESS 10001ATKINS, J.D96111152211166160000000000000000000000000000000000000000000000000000000000000000000000000000000000000000000000000000000000000000000000000000000000000000000000000000000000000000000000000000000000000000000000000000000000000000000000000000000000000000000000000000000000000000000000000000000000000000000000000000000000000000000000000000000
999284  56 1WEST VI 20021ATKINSON, G00000000000000000000000000966616161161611160100000000000000000000000000000000000000000000000000000000000000000000000000000000000000000000000000000000000000000000000000000000000000000000000000000000000000000000000000000000000000000000000000000000000000000000000000000000000000000000000000000000000000000000000000000000000000000000000000
999285  1418PENNSYL 20001ATKINSON, L00000000000000001116611611166616161161611990100000000000000000000000000000000000000000000000000000000000000000000000000000000000000000000000000000000000000000000000000000000000000000000000000000000000000000000000000000000000000000000000000000000000000000000000000000000000000000000000000000000000000000000000000000000000000000000000000
999286  54 5TENNESS 10001ATKINSON   00000000000000000000000000000000000000000000000000000000000000000000000000000006616000000000000000000000000000000000000000000000000000000000000000000000000000000000000000000000000000000000000000000000000000000000000000000000000000000000000000000000000000000000000000000000000000000000000000000000000000000000000000000000000000000000000
999288  47 4NORTH C 34001ATWATER    00000000000000000000000000000000000000000000000666681660000000000000000000000000000000000000000000000000000000000000000000000000000000000000000000000000000000000000000000000000000000000000000000000000000000000000000000000000000000000000000000000000000000000000000000000000000000000000000000000000000000000000000000000000000000000000000
999291  12 3NEW JER 20001AUCHINCLOSS00000000000000000000000001000000000000001000100000000000000000000000000000000000000000000000111161711116617616161666661611611111611112116121171167110000000000000000000000000000000000000000000000000000000000000000000000000000000000000000000000000000000000000000000000000000000000000000000000000000000000000000000000000000000000000000000
999293  1  4CONNECT 20001AUSTIN     00000000000000000000000000000000000000000000000000000000000000000000000000000000000110000000000000000000000000000000000000000000000000000000000000000000000000000000000000000000000000000000000000000000000000000000000000000000000000000000000000000000000000000000000000000000000000000000000000000000000000000000000000000000000000000000000
999295  54 2TENNESS 20001AUSTIN, R. 00000000000000000000000000000000000000000000000000000001000000000000000000000000000000000000000000000000000000000000000000000000000000000000000000000000000000000000000000000000000000000000000000000000000000000000000000000000000000000000000000000000000000000000000000000000000000000000000000000000000000000000000000000000000000000000000
999300  2311MICHIGA 20001AVERY, J.  00000000000000000000000000000000000000000009116000000000000000000000000000000000000000000000000000000000000000000000000000000000000000000000000000000000000000000000000000000000000000000000000000000000000000000000000000000000000000000000000000000000000000000000000000000000000000000000000000000000000000000000000000000000000000000000000
999301  32 1KANSAS  20001AVERY      00000000000000000000000000000000000000001000100000000000000000000000000000000000000000000000000000000000000000000000000000000011611111116111161166170000000000000000000000000000000000000000000000000000000000000000000000000000000000000000000000000000000000000000000000000000000000000000000000000000000000000000000000000000000000000000000
999308  1318NEW YOR 10001AYRES, S.B.00000000000000000000000000000000000000000000000000000000000000000000000000000000000000000000000000000000000000000000000000000000000000000000000000000000000000000000000000000000000000000000000000000000000000000000000000000000000000000000000000000000000000000000000000000000000000000000000000000000000000000000000000000000000000000000000
999309  32 8KANSAS  10001AYRES      00000000000000000000000000000000000000000000000000000000600000000000000000000000000000000000000000000000000000000000000000000000000000000000000000000000000000000000000000000000000000000000000000000000000000000000000000000000000000000000000000000000000000000000000000000000000000000000000000000000000000000000000000000000000000000000000
999310  2414OHIO    20001AYRES,     00000000000000000000000001000000000000001000100000000010000000000000000000000000000000000000000000000000000000000000000000016611611111116111161166111166611111616611111111111161116111999000000000000000000000000000000000000000000000000000000000000000000000000000000000000000000000000000000000000000000000000000000000000000000000000000000
999311  25 1WISCONS 10001BABITT     00000000000000000000000000000000000000000000000000000000000000000000000000000000000000000000000000000000000000000000000000000000000000000000000000000000000000000000000000000000000000000000000000000000000000000000000000000000000000000000000000000000000000000000000000000000000000000000000000000000000000000000000000000000000000000000000
999314  25 3WISCONS 20001BABCOCK, J.00000000000000000000000000000000000000000009116111999990000000000000000000000000000000000000000000000000000000000000000000000000000000000000000000000000000000000000000000000000000000000000000000000000000000000000000000000000000000000000000000000000000000000000000000000000000000000000000000000000000000000000000000000000000000000000000
999317  2421OHIO    10001BABKA, J.J.00000000000000000000000000000000000000000000000000000000900000000000000000000000000000000000000000000000000000000000000000000000000000000000000000000000000000000000000000000000000000000000000000000000000000000000000000000000000000000000000000000000000000000000000000000000000000000000000000000000000000000000000000000000000000000000000
999318  12 2NEW JER 20001BACHARACH  00000000000000000000000000000000000000000000000000000000199229999161111111111610000000000000000000000000000000000000000000000000000000000000000000000000000000000000000000000000000000000000000000000000000000000000000000000000000000000000000000000000000000000000000000000000000000000000000000000000000000000000000000000000000000000000000
999320  1410PENNSYL 10001BACHMAN    00000052111196100000000000000000000000000000000000000000000000000000000000000000000000000000000000000000000000000000000000000000000000000000000000000000000000000000000000000000000000000000000000000000000000000000000000000000000000000000000000000000000000000000000000000000000000000000000000000000000000000000000000000000000000000000000
999324  1315NEW YOR 10001BACON      00000000000000000000000000000000000000000000000000000000000000000000000000000000000000000000000000000000000000000000000000000000000000000000000000000000000000000000000000000000000000000000000000000000000000000000000000000000000000000000000000000000000000000000000000000000000000000000000000000000000000000000000000000000000000000000000
999326  23 2MICHIGA 20011BACON      00000000000000000000000000000000000000000000000000000000000000000000000000000000000000000000000000000000000000000000000000000000000000000000000000000000000000000000000000000000000000000000000000000000000000000000000000000000000000000000000000000000000000000000000000000000000000000000000000000000000000000000000000000000000000000000000
999327  13 1NEW YOR 20001BACON      00000000000000000000000000000000000000000000000000000000000000000000000000000009252000000000000000000000000000000000000000000000000000000000000000000000000000000000000000000000000000000000000000000000000000000000000000000000000000000000000000000000000000000000000000000000000000000000000000000000000000000000000000000000000000000000000
999328  1323NEW YOR 20001BACON, W.J.61666900000000000000000000000000000000000000000000000000000000000000000000000000000000000000000000000000000000000000000000000000010000000110000000000000000000000000000000000000000000000000000000000000000000000000000000000000000000000000000000000000000000000000000000000000000000000000000000000000000000000000000000000000000000000000000
999333  36 1NORTH D 20022BAER       00000000000000000000000000000000000000000000000000000000100000000000000000000000000000000000000000000000000000000000000000000000000000000000000000000000000000000000000000000000000000000000000000000000000000000000000000000000000000000000000000000000000000000000000000000000000000000000000000000000000000000000000000000000000000000000000
999336  1322NEW YOR 20001BAGLEY, G.A61666900000000000000000000000000000000000000000000000000000000000000000000000000000000000000000000000000000000000000000000000000010000000110000000000000000000000000000000000000000000000000000000000000000000000000000000000000000000000000000000000000000000000000000000000000000000000000000000000000000000000000000000000000000000000000000
999337  1315NEW YOR 10001BAGLEY, J.H00000000000000006116611191000000000000000000000000000000000000000000000000000000000000000000000000000000000000000000000000000000000000000000000000000000000000000000000000000000000000000000000000000000000000000000000000000000000000000000000000000000000000000000000000000000000000000000000000000000000000000000000000000000000000000000000
999339  56 3WEST VI 10001BAILEY, C. 00000000000000000000000000000000000000001000100000000000000000000000000000000000000000000000000000077717606717761667661616611667722221116116100000000000000000000000000000000000000000000000000000000000000000000000000000000000000000000000000000000000000000000000000000000000000000000000000000000000000000000000000000000000000000000000000
999345  1316NEW YOR 20022BAILEY, J.M00066999699999900000000000000000000000000000000000000000000000000000000000000000000000000000000000000000000000000000000000000000010000000110000000000000000000000000000000000000000000000000000000000000000000000000000000000000000000000000000000000000000000000000000000000000000000000000000000000000000000000000000000000000000000000000000
999347  49 5TEXAS   10001BAILEY     00000000000000000000000000000000000000000001999666999990000000000000000000000000000000000000000000000000000000000000000000000000000000000000000000000000000000000000000000000000000000000000000000000000000000000000000000000000000000000000000000000000000000000000000000000000000000000000000000000000000000000000000000000000000000000000000
999353  3299KANSAS  20001BAILEY,W.J 00000000000000000000000000000000000000000000000111999990000000000000000000000000000000000000000000000000000000000000000000000000000000000000000000000000000000000000000000000000000000000000000000000000000000000000000000000000000000000000000000000000000000000000000000000000000000000000000000000000000000000000000000000000000000000000000
999357  45 5LOUISIA 10001BAIRD      00000000000000000000000000000000000000000000000000000000000000000000000000000000000000000000000000000000000000000000000000000000000000000000000000000000000000000000000000000000000000000000000000000000000000000000000000000000000000000000000000000000000000000000000000000000000000000000000000000000000000000000000000000000000000000000000
999359  1330NEW YOR 20001BAKER, C.  00000000000000000000000000199999999999999160000000000000000000000000000000000000000000000000000000000000000000000000000000000000000000000000000000000000000000000000000000000000000000000000000000000000000000000000000000000000000000000000000000000000000000000000000000000000000000000000000000000000000000000000000000000000000000000000000
999363  4  2NEW HAM 20001BAKER,H.M. 00000000000000000000000000000000000000000009116000000000000000000000000000000000000000000000000000000000000000000000000000000000000000000000000000000000000000000000000000000000000000000000000000000000000000000000000000000000000000000000000000000000000000000000000000000000000000000000000000000000000000000000000000000000000000000000000
999364  54 2TENNESS 20001BAKER, H.  00000000000000000000000000000000000000001000100000000000000000000000000000000000000000000000000000000000000000000000000000007261256617116116176760000000000000000000000000000000000000000000000000000000000000000000000000000000000000000000000000000000000000000000000000000000000000000000000000000000000000000000000000000000000000000000000
999366  2118ILLINOI 20001BAKER, J.  00000000000000000000000000000000000000000000000000000000000000000000000000000000000000000000000000000000000000000000000000000000000000000000000000000000000000000000000000000000000000000000000000000000000000000000000000000000000000000000000000000000000000000000000000000000000000000000000000000000000000000000000000000000000000000000000
999368  2213INDIANA 20001BAKER, J.H.69556925566911600000000000000000000000000000000000000000000000000000000000000000000000000000000000000000000000000000000000000000000000000000000000000000000000000000000000000000000000000000000000000000000000000000000000000000000000000000000000000000000000000000000000000000000000000000000000000000000000000000000000000000000000000000000
999373  32 6KANSAS  34001BAKER      00000000000000000000000000000000000000000009661000000000000000000000000000000000000000000000000000000000000000000000000000000000000000000000000000000000000000000000000000000000000000000000000000000000000000000000000000000000000000000000000000000000000000000000000000000000000000000000000000000000000000000000000000000000000000000000000
999374  52 2MARYLAN 20001BAKER, W.  00000000000000000000000000000000000000000000000999166990000000000000000000000000000000000000000000000000000000000000000000000000000000000000000000000000000000000000000000000000000000000000000000000000000000000000000000000000000000000000000000000000000000000000000000000000000000000000000000000000000000000000000000000000000000000000000
999375  1324NEW YOR 20001BAKER, W.H.66699900000000000000000000000000000000000000000000000000000000000000000000000000000000000000000000000000000000000000000000000000000000000000000000000000000000000000000000000000000000000000000000000000000000000000000000000000000000000000000000000000000000000000000000000000000000000000000000000000000000000000000000000000000000000000000
999377  3411MISSOUR 20001BAKEWELL,  00000000000000000000000000000000000000000000000000000000000000000000000000000000000000000000000000000000010000000000000000001800000000000000000000000000000000000000000000000000000000000000000000000000000000000000000000000000000000000000000000000000000000000000000000000000000000000000000000000000000000000000000000000000000000000000000
999381  52 2MARYLAN 10001BALDWIN, H.00000000000000000000000000000000000000000000000000000000000000000000000000000000000000000000666727955677700000000000000000000000000000000000000000000000000000000000000000000000000000000000000000000000000000000000000000000000000000000000000000000000000000000000000000000000000000000000000000000000000000000000000000000000000000000000000
999387  71 6CALIFOR 20001BALDWIN    00000000000000000000000001000000000000001000100000000010000000000000000000000000000000000000000000000000000000000000000000000011611111116111161166111161611110000000000000000000000000000000000000000000000000000000000000000000000000000000000000000000000000000000000000000000000000000000000000000000000000000000000000000000000000000000000
999388  1317NEW YOR 20022BALDWIN    00000000000000000000000000000000000000000000000000000000000000000000000000000000000007761191111111277176600000000000000000000000000000000000000000000000000000000000000000000000000000000000000000000000000000000000000000000000000000000000000000000000000000000000000000000000000000000000000000000000000000000000000000000000000000000000000
999389  33 6MINNESO 10001BALDWIN, M.00000000000000000000000000000000000000000001661000000000000000000000000000000000000000000000000000000000000000000000000000000000000000000000000000000000000000000000000000000000000000000000000000000000000000000000000000000000000000000000000000000000000000000000000000000000000000000000000000000000000000000000000000000000000000000000000
999396  49 1TEXAS   10001BALL       00000000000000000000000000000000000000000000000666991660000000000000000000000000000000000000000000000000000000000000000000000000000000000000000000000000000000000000000000000000000000000000000000000000000000000000000000000000000000000000000000000000000000000000000000000000000000000000000000000000000000000000000000000000000000000000000
999397  1  2CONNECT 20001BALL       00000000000000000000000000000000000000000000000000000000000000000000000000000000000160000000000000000000000000000000000000000000000000000000000000000000000000000000000000000000000000000000000000000000000000000000000000000000000000000000000000000000000000000000000000000000000000000000000000000000000000000000000000000000000000000000000
999399  54 7TENNESS 10001BALLENTINE 00000000000000006661166199000000000000000000000000000000000000000000000000000000000000000000000000000000000000000000000000000000000000000000000000000000000000000000000000000000000000000000000000000000000000000000000000000000000000000000000000000000000000000000000000000000000000000000000000000000000000000000000000000000000000000000000
999400  5  2RHODE I 20001BALLOU, L.W91655929996611600000000000000000000000000000000000000000000000000000000000000000000000000000000000000000000000000000000000000000000000000000000000000000000000000000000000000000000000000000000000000000000000000000000000000000000000000000000000000000000000000000000000000000000000000000000000000000000000000000000000000000000000000000000
999403  41 6ALABAMA 10001BANKHEAD   00000000000000000000000000611161616616166999661666611690000000000000000000000000000000000000000000000000000000000000000000000000000000000000000000000000000000000000000000000000000000000000000000000000000000000000000000000000000000000000000000000000000000000000000000000000000000000000000000000000000000000000000000000000000000000000000
999405  41 7ALABAMA 10011BANKHEAD   00000000000000000000000000000000000000000000000000000000000000000000000000000000000000000000000000000000000000000000000000000000000000000000000000000000000000000000000000000000000000000000000000000000000000000000000000000000000000000000000000000000000000000000000000000000000000000000000000000000000000000000000000000000000000000000000
999406  4110ALABAMA 10001BANKHEAD   00000000000000000000000000000000000000000000000000000000619668199616616666666160616000000000000000000000000000000000000000000000000000000000000000000000000000000000000000000000000000000000000000000000000000000000000000000000000000000000000000000000000000000000000000000000000000000000000000000000000000000000000000000000000000000000000
999409  3  5MASSACH 20001BANKS, N.P.91656900000000000000000000166616161161611190100000000000000000000000000000000000000000000000000000000000000000000000000000000000000000000000000000000000000000000000000000000000000000000000000000000000000000000000000000000000000000000000000000000000000000000000000000000000000000000000000000000000000000000000000000000000000000000000000
999410  24 2OHIO    10001BANNING, H.66111100000000000000000000000000000000000000000000000000000000000000000000000000000000000000000000000000000000000000000000000000000000000000000000000000000000000000000000000000000000000000000000000000000000000000000000000000000000000000000000000000000000000000000000000000000000000000000000000000000000000000000000000000000000000000000
999412  34 8MISSOUR 20001BANTA, P.  00000000000000000000000000000000000000000000000000000000000000000000000000000000000000000000000000000000010000000000000000000000000000000000000000000000000000000000000000000000000000000000000000000000000000000000000000000000000000000000000000000000000000000000000000000000000000000000000000000000000000000000000000000000000000000000000
999413  21 3ILLINOI 20001BARBER     00000025666611900000000000000000000000000000000000000000000000000000000000000000000000000000000000000000000000000000000000000000000000000000000000000000000000000000000000000000000000000000000000000000000000000000000000000000000000000000000000000000000000000000000000000000000000000000000000000000000000000000000000000000000000000000000
999414  52 1MARYLAN 20001BARBER     00000000000000000000000000000000000000000000000000000000000000000000000000000000000000000000000000000000000000000000000000000000000000000000000000000000000000000000000000000000000000000000000000000000000000000000000000000000000000000000000000000000000000000000000000000000000000000000000000000000000000000000000000000000000000000000000
999416  14 8PENNSYL 10001BARBER     00000000000000000000000000000000000000000000000666999990000000000000000000000000000000000000000000000000000000000000000000000000000000000000000000000000000000000000000000000000000000000000000000000000000000000000000000000000000000000000000000000000000000000000000000000000000000000000000000000000000000000000000000000000000000000000000
999419  71 7CALIFOR 20001BARBOUR, H.00000000000000000000000000000000000000000000000000000000199229999161111111111160000000000000000000000000000000000000000000000000000000000000000000000000000000000000000000000000000000000000000000000000000000000000000000000000000000000000000000000000000000000000000000000000000000000000000000000000000000000000000000000000000000000000000
999422  40 8VIRGINI 10001BARBOUR, J.00000000000000096999999999000000000000000000000000000000000000000000000000000000000000000000000000000000000000000000000000000000000000000000000000000000000000000000000000000000000000000000000000000000000000000000000000000000000000000000000000000000000000000000000000000000000000000000000000000000000000000000000000000000000000000000000
999426  1432PENNSYL 20001BARCHFELD, 00000000000000000000000000000000000000000000000000000001000000000000000000000000000000000000000000000000000000000000000000000000000000000000000000000000000000000000000000000000000000000000000000000000000000000000000000000000000000000000000000000000000000000000000000000000000000000000000000000000000000000000000000000000000000000000000
999427  1421PENNSYL 20001BARCLAY, C.00000000000000000000000000000000000000000000000000000009000000000000000000000000000000000000000000000000000000000000000000000000000000000000000000000000000000000000000000000000000000000000000000000000000000000000000000000000000000000000000000000000000000000000000000000000000000000000000000000000000000000000000000000000000000000000000
999431  47 3NORTH C 10001BARDEN     00011000000000000000000000000000000000000000600000000060000000000000000000000006616667716776666611166661167777525111116161165666165555652557000000660000060600000000000000000000000060000000000000000000000000000000000000000000000000060600000000000000000000000000000000000000060000000000000000000000000000000000000000006000000000000000006
999432  71 1CALIFOR 20001BARHAM     00000000000000000000000000000000000000000000000191196110000000000000000000000000000000000000000000000000000000000000000000000000000000000000000000000000000000000000000000000000000000000000000000000000000000000000000000000000000000000000000000000000000000000000000000000000000000000000000000000000000000000000000000000000000000000000000
999433  65 1NEVADA  10001BARING, W. 00000000000000000000000000000000000000001000100000000000000000000000000000000000000000000000000000000000006616161667661616611701611171136116177611669196196996561161675566761161191666995661111652661111161610000000000000000000000000000000000000000000000000000000000000000000000000000000000000000000000000000000000000000000000000000000000
999437  51 1KENTUCK 10001BARKLEY    00000000000000000000000000000000000000000000000000000000619661996599995666666160000000000000000000000000000000000000000000000000000000000000000000000000000000000000000000000000000000000000000000000000000000000000000000000000000000000000000000000000000000000000000000000000000000000000000000000000000000000000000000000000000000000000000
999438  46 7MISSISS 10001BARKSDALE, 00000000000000006661166116000000000000000000000000000000000000000000000000000000000000000000000000000000000000000000000000000000000000000000000000000000000000000000000000000000000000000000000000000000000000000000000000000000000000000000000000000000000000000000000000000000000000000000000000000000000000000000000000000000000000000000000
999440  6  3VERMONT 32601BARLOW     00000029999999900000000000000000000000000000000000000000000000000000000000000000000000000000000000000000000000000000000000000000000000000000000000000000000000000000000000000000000000000000000000000000000000000000000000000000000000000000000000000000000000000000000000000000000000000000000000000000000000000000000000000000000000000000000
999441  71 6CALIFOR 34001BARLOW     00000000000000000000000000000000000000000000000000000000000000000000000000000000000000000000000000000000000000000000000000000000000000000000000000000000000000000000000000000000000000000000000000000000000000000000000000000000000000000000000000000000000000000000000000000000000000000000000000000000000000000000000000000000000000000000000
999445  22 6INDIANA 20001BARNARD, W.00000000000000000000000000000000000000000000000000000001000000000000000000000000000000000000000000000000000000000000000000000000000000000000000000000000000000000000000000000000000000000000000000000000000000000000000000000000000000000000000000000000000000000000000000000000000000000000000000000000000000000000000000000000000000000000000
999447  4410GEORGIA 10001BARNES     00000000000000000000000000611161616616166990000000000000000000000000000000000000000000000000000000000000000000000000000000000000000000000000000000000000000000000000000000000000000000000000000000000000000000000000000000000000000000000000000000000000000000000000000000000000000000000000000000000000000000000000000000000000000000000000000
999448  2120ILLINOI 10001BARNES     00000000000000000000000000000000000000000000000000000000000000000000000000000000000119961777000000000000000000000000000000000000000000000000000000000000000000000000000000000000000000000000000000000000000000000000000000000000000000000000000000000000000000000000000000000000000000000000000000000000000000000000000000000000000000000000000
999449  25 8WISCONS 10001BARNES, L. 00000000000000000000000000000000000000000001661000000000000000000000000000000000000000000000000000000000000000000000000000000000000000000000000000000000000000000000000000000000000000000000000000000000000000000000000000000000000000000000000000000000000000000000000000000000000000000000000000000000000000000000000000000000000000000000000
999452  25 5WISCONS 20001BARNEY     00000000000000000000000000000000000000000000000111999990000000000000000000000000000000000000000000000000000000000000000000000000000000000000000000000000000000000000000000000000000000000000000000000000000000000000000000000000000000000000000000000000000000000000000000000000000000000000000000000000000000000000000000000000000000000000000
999453  2213INDIANA 10001BARNHART,  00000000000000000000000000000000000000000000000000000006000000000000000000000000000000000000000000000000000000000000000000000000000000000000000000000000000000000000000000000000000000000000000000000000000000000000000000000000000000000000000000000000000000000000000000000000000000000000000000000000000000000000000000000000000000000000000
999458  2211INDIANA 10001BARR       00000000000000000000000000000000000000001000100000000000000000000000000000000000000000000000000000000000000000000000000000000000010007116111000000000000000000000000000000000000000000000000000000000000000000000000000000000000000000000000000000000000000000000000000000000000000000000000000000000000000000000000000000000000000000000000000
999459  1414PENNSYL 20001BARR, S.F. 00000000000000099116611661000000000000000000000000000000000000000000000000000000000000000000000000000000000000000000000000000000000000000000000000000000000000000000000000000000000000000000000000000000000000000000000000000000000000000000000000000000000000000000000000000000000000000000000000000000000000000000000000000000000000000000000
999464  68 1WYOMING 20001BARRETT    00000000000000000000000000000000000000000000000000000000000000000000000000000000000000000000111161111116616616161777661611610000000000000000000000000000000000000000000000000000000000000000000000000000000000000000000000000000000000000000000000000000000000000000000000000000000000000000000000000000000000000000000000000000000000000000000
999465  14 1PENNSYL 10001BARRETT, W.00000000000000000000000001000000000000001000100000000010000000000000000000000000000000000000000000011116606616161555661616611611611112116111176177111161619111166616621111166116696119992196661116166666666166611616616661696166666661111161611900000000000000000000000000000000000000000000000000000000000000000000000000000000000000000000000
999466  3  7MASSACH 20001BARRETT    00000000000000000000000000000000000000000000000000000000000000000000000000000000000000000000000000000000000000000000000000000000000000000000000000000000000000000000000000000000000000000000000000000000000000000000000000000000000000000000000000000000000000000000000000000000000000000000000000000000000000000000000000000000000000000000000
999472  3 10MASSACH 20001BARROWS    00000000000000000000000000000000000000000000000000000000000000000000000000000000000000000000000000000000000000000000000000000000000000000000000000000000000000000000000000000000000000000000000000000000000000000000000000000000000000000000000000000000000000000000000000000000000000000000000000000000000000000000000000000000000000000000000
999474  46 4MISSISS 10001BARRY      00000000000000000000000000000000000000000000000000000000000000000000000000000000000000000000000000000000000000000000000000000000000000000000000000000000000000000000000000000000000000000000000000000000000000000000000000000000000000000000000000000000000000000000000000000000000000000000000000000000000000000000000000000000000000000000000
999476  1327NEW YOR 20001BARRY      00000000000000000000000001000000000000001000100000000000000000000000000000000000000000000000000000000000000000000000000000000000010001116112761166110000000000000000000000000000000000000000000000000000000000000000000000000000000000000000000000000000000000000000000000000000000000000000000000000000000000000000000000000000000000000000000
999477  13 2NEW YOR 10001BARRY      00000000000000000000000000000000000000000000000000000000000000000000000000000006161117761111111616611117600000000000000000000000000000000000000000000000000000000000000000000000000000000000000000000000000000000000000000000000000000000000000000000000000000000000000000000000000000000000000000000000000000000000000000000000000000000000000
999482  3410MISSOUR 20001BARTHOLDT, 00000000000000000000000000000000000000000009116111999991000000000000000000000000000000000000000000000000000000000000000000000000000000000000000000000000000000000000000000000000000000000000000000000000000000000000000000000000000000000000000000000000000000000000000000000000000000000000000000000000000000000000000000000000000000000000000
999483  65 1NEVADA  20001BARTINE    00000000000000000000000000166616161161611960100000000000000000000000000000000000000000000000000000000000000000000000000000000000000000000000000000000000000000000000000000000000000000000000000000000000000000000000000000000000000000000000000000000000000000000000000000000000000000000000000000000000000000000000000000000000000000000000000
999485  44 6GEORGIA 10001BARTLETT   00000000000000000000000000000000000000000000000666999996000000000000000000000000000000000000000000000000000000000000000000000000000000000000000000000000000000000000000000000000000000000000000000000000000000000000000000000000000000000000000000000000000000000000000000000000000000000000000000000000000000000000000000000000000000000000000
999487  13 7NEW YOR 10001BARTLETT,  00000000000000000000000000000000000000000009661000000000000000000000000000000000000000000000000000000000000000000000000000000000000000000000000000000000000000000000000000000000000000000000000000000000000000000000000000000000000000000000000000000000000000000000000000000000000000000000000000000000000000000000000000000000000000000000000
999488  65 1NEVADA  10001BARTLETT,  00000000000000000000000000000000000000000000000000000006000000000000000000000000000000000000000000000000000000000000000000000000000000000000000000000000000000000000000000000000000000000000000000000000000000000000000000000000000000000000000000000000000000000000000000000000000000000000000000000000000000000000000000000000000000000000000
999494  1317NEW YOR 20022BARTON     00000000000000000000000000000000000000000000000000000000000000000000000000000000000210000000000000000000000000000000000000000000000000000000000000000000000000000000000000000000000000000000000000000000000000000000000000000000000000000000000000000000000000000000000000000000000000000000000000000000000000000000000000000000000000000000000
999500  25 2WISCONS 10001BARWIG     00000000000000000000000000911161616616166991661000000000000000000000000000000000000000000000000000000000000000000000000000000000000000000000000000000000000000000000000000000000000000000000000000000000000000000000000000000000000000000000000000000000000000000000000000000000000000000000000000000000000000000000000000000000000000000000000
999503  4  2NEW HAM 20001BASS  P.   00000000000000000000000000000000000000001000100000000000000000000000000000000000000000000000000000000000000000000000000000000061611112116111100000000000000000000000000000000000000000000000000000000000000000000000000000000000000000000000000000000000000000000000000000000000000000000000000000000000000000000000000000000000000000000000000
999504  54 6TENNESS 10001BASS  R.   00011000000000000000000001000000000000000000600000000060000000000000000000000000000000000000000000000000000000000000000000000066166616661666166117110000060600000000000000000000000060000000000000000000000000000000000000000000000000060600000000000000000000000000000000000000060000000000000000000000000000000000000000006000000000000000006
999510  1425PENNSYL 20001BATES, A.L.00000000000000000000000000000000000000000000000000000009000000000000000000000000000000000000000000000000000000000000000000000000000000000000000000000000000000000000000000000000000000000000000000000000000000000000000000000000000000000000000000000000000000000000000000000000000000000000000000000000000000000000000000000000000000000000000
999512  3  6MASSACH 20001BATES, G.J.00000000000000000000000000000000000000000000000000000000000000000000000000000006161111161111111161171116617116161000000000000000000000000000000000000000000000000000000000000000000000000000000000000000000000000000000000000000000000000000000000000000000000000000000000000000000000000000000000000000000000000000000000000000000000000000000
999516  51 8KENTUCK 10022BATES, J.B.00000000000000000000000000000000000000000000000000000000000000000000000000000000000661161999666611611161166616111222116161166500000000000000000000000000000000000000000000000000000000000000000000000000000000000000000000000000000000000000000000000000000000000000000000000000000000000000000000000000000000000000000000000000000000000000000
999518  3  6MASSACH 20022BATES, W.  00000000000000000000000001000000000000001000100000000010000000000000000000000000000000000000000000000000000000000000000000017111611111116111171166111166111111111611111111116110000000000000000000000000000000000000000000000000000000000000000000000000000000000000000000000000000000000000000000000000000000000000000000000000000000000000000
999519  2419OHIO    10001BATHRICK   00000000000000000000000000000000000000000000000000000000000000000000000000000000000000000000000000000000000000000000000000000000000000000000000000000000000000000000000000000000000000000000000000000000000000000000000000000000000000000000000000000000000000000000000000000000000000000000000000000000000000000000000000000000000000000000000
999520  41 9ALABAMA 10001BATTLE, L. 00000000000000000000000000000000000000000000000000000000000000000000000000000000000000000000000000000000061161616211116161166600000000000000000000000000000000000000000000000000000000000000000000000000000000000000000000000000000000000000000000000000000000000000000000000000000000000000000000000000000000000000000000000000000000000000000
999521  2413OHIO    20001BAUMHART   00000000000000000000000000000000000000001000100000000000000000000000000000000000000007700000000000000000000000000000000000000011611117716111000000000000000000000000000000000000000000000000000000000000000000000000000000000000000000000000000000000000000000000000000000000000000000000000000000000000000000000000000000000000000000000000000
999536  1423PENNSYL 20001BAYNE, T.M.91656916666611619999999999166616161161611160100000000000000000000000000000000000000000000000000000000000000000000000000000000000000000000000000000000000000000000000000000000000000000000000000000000000000000000000000000000000000000000000000000000000000000000000000000000000000000000000000000000000000000000000000000000000000000000000000
999537  2420OHIO    20001BEACH      00000000000000000000000000000000000000000000000000000000000000000000000000000000000000000000000000000000000000000000000000000000000000000000000000000000000000000000000000000000000000000000000000000000000000000000000000000000000000000000000000000000000000000000000000000000000000000000000000000000000000000000000000000000000000000000000
999538  1314NEW YOR 10001BEACH, L.  00000000000000019116611611000000000000000000000000000000000000000000000000000000000000000000000000000000000000000000000000000000000000000000000000000000000000000000000000000000000000000000000000000000000000000000000000000000000000000000000000000000000000000000000000000000000000000000000000000000000000000000000000000000000000000000000
999539  23 2MICHIGA 10021BEAKES     00000000000000000000000000000000000000000000000000000000000000000000000000000000000000000000000000000000000000000000000000000000000000000000000000000000000000000000000000000000000000000000000000000000000000000000000000000000000000000000000000000000000000000000000000000000000000000000000000000000000000000000000000000000000000000000000
999543  40 1VIRGINI 10022BEALE, R.L.00011152129966100000000000000000000000000000000000000000000000000000000000000000000000000000000000000000000000000000000000000000000000000000000000000000000000000000000000000000000000000000000000000000000000000000000000000000000000000000000000000000000000000000000000000000000000000000000000000000000000000000000000000000000000000000000
999545  49 5TEXAS   10001BEALL, J.  00000000000000000000000000000000000000000000000000000006000000000000000000000000000000000000000000000000000000000000000000000000000000000000000000000000000000000000000000000000000000000000000000000000000000000000000000000000000000000000000000000000000000000000000000000000000000000000000000000000000000000000000000000000000000000000000
999546  52 6MARYLAN 20001BEALL      00000000000000000000000000000000000000000000000000000000000000000000000000000000000000000000111161177177716616161666661611611100000000000000000000000000000000000000000000000000000000000000000000000000000000000000000000000000000000000000000000000000000000000000000000000000000000000000000000000000000000000000000000000000000000000000000
999548  21 4ILLINOI 10001BEAM       00000000000000000000000000000000000000000000000000000000000000000000000000000009161211179111000000000000000000000000000000000000000000000000000000000000000000000000000000000000000000000000000000000000000000000000000000000000000000000000000000000000000000000000000000000000000000000000000000000000000000000000000000000000000000000000000
999550  22 5INDIANA 20001BEAMER,    00000000000000000000000000000000000000000000000000000000000000000000000000000000000000000000000000000000000000000000000000001117527710000000000000000000000000000000000000000000000000000000000000000000000000000000000000000000000000000000000000000000000000000000000000000000000000000000000000000000000000000000000000000000000000000000000
999562  25 7WISCONS 20001BECK, J.D. 00000000000000000000000000000000000000000000000000000000061111991161191911111990000000000000000000000000000000000000000000000000000000000000000000000000000000000000000000000000000000000000000000000000000000000000000000000000000000000000000000000000000000000000000000000000000000000000000000000000000000000000000000000000000000000000000
999563  13 3NEW YOR 20001BECKER     00000000000000000000000001000000000000001000100000000000000000000000000000000000000000000000000000000000000000000000000000000011611121116111161166110000000000000000000000000000000000000000000000000000000000000000000000000000000000000000000000000000000000000000000000000000000000000000000000000000000000000000000000000000000000000000000
999565  5110KENTUCK 10022BECKNER, W.00000000000000000000000000000000000000000000000000000000000000000000000000000000000000000000000000000000000000000000000000000000000000000000000000000000000000000000000000000000000000000000000000000000000000000000000000000000000000000000000000000000000000000000000000000000000000000000000000000000000000000000000000000000000000000000000
999566  12 5NEW JER 20001BECKWITH   00000000000000000000000000166616161161611160100000000000000000000000000000000000000000000000000000000000000000000000000000000000000000000000000000000000000000000000000000000000000000000000000000000000000000000000000000000000000000000000000000000000000000000000000000000000000000000000000000000000000000000000000000000000000000000000000
999567  49 3TEXAS   10001BECKWORTH  00011000000000000000000000000000000000000000600000000060000000000000000000000000000669716666666611166661161161616111116161166606166666661666616611661116666669661161000000000000000060000000000000000000000000000000000000000000000000060600000000000000000000000000000000000000060000000000000000000000000000000000000000006000000000000000006
999573  4914TEXAS   10001BEE, C.    00000000000000000000000000000000000000000000000000000000600000000000000000000000000000000000000000000000000000000000000000000000000000000000000000000000000000000000000000000000000000000000000000000000000000000000000000000000000000000000000000000000000000000000000000000000000000000000000000000000000000000000000000000000000000000000000
999575  1314NEW YOR 10001BEEBE, G.M.66992900000000000000000000000000000000000000000000000000000000000000000000000000000000000000000000000000000000000000000000000000000000000000000000000000000000000000000000000000000000000000000000000000000000000000000000000000000000000000000000000000000000000000000000000000000000000000000000000000000000000000000000000000000000000000000
999577  2  1MAINE   20001BEEDY, C.L.00000000000000000000000000000000000000000000000000000000099999999999999922111610000000000000000000000000000000000000000000000000000000000000000000000000000000000000000000000000000000000000000000000000000000000000000000000000000000000000000000000000000000000000000000000000000000000000000000000000000000000000000000000000000000000000000
999579  46 5MISSISS 10001BEEMAN     00000000000000000000000000000000000000000000000000000000000000000000000000000000000000000000000000000000000000000000000000000000000000000000000000000000000000000000000000000000000000000000000000000000000000000000000000000000000000000000000000000000000000000000000000000000000000000000000000000000000000000000000000000000000000000000000
999583  2413OHIO    20001BEGG, J.T. 00000000000000000000000000000000000000000000000000000000161111611161111111111610000000000000000000000000000000000000000000000000000000000000000000000000000000000000000000000000000000000000000000000000000000000000000000000000000000000000000000000000000000000000000000000000000000000000000000000000000000000000000000000000000000000000000
999587  1341NEW YOR 10001BEITER     00000000000000000000000000000000000000000000000000000000000000000000000000000006161001161111000000000000000000000000000000000000000000000000000000000000000000000000000000000000000000000000000000000000000000000000000000000000000000000000000000000000000000000000000000000000000000000000000000000000000000000000000000000000000000000000000
999590  53 8OKLAHOM 20001BELCHER,   00000000000000000000000001000000000000001000100000000010000000000000000000000000000000000000000000000000000000000000000000001261611111116111167176661116116166661161161666111171116666999619116161661111161610000000000000000000000000000000000000000000000000000000000000000000000000000000000000000000000000000000000000000000000000000000000
999592  1325NEW YOR 20002BELDEN     00000000000000000000000000166616161161611999116000000000000000000000000000000000000000000000000000000000000000000000000000000000000000000000000000000000000000000000000000000000000000000000000000000000000000000000000000000000000000000000000000000000000000000000000000000000000000000000000000000000000000000000000000000000000000000000000
999593  62 1COLORAD 20011BELFORD, J.00000016691999111999999999000000000000000000000000000000000000000000000000000000000000000000000000000000000000000000000000000000000000000000000000000000000000000000000000000000000000000000000000000000000000000000000000000000000000000000000000000000000000000000000000000000000000000000000000000000000000000000000000000000000000000000000
999594  13 1NEW YOR 20001BELFORD    00000000000000000000000000000000000000000000000000000000000000000000000000000000000000000000000000000000000000000000000000000000000000000000000000000000000000000000000000000000000000000000000000000000000000000000000000000000000000000000000000000000000000000000000000000000000000000000000000000000000000000000000000000000000000000000000
999595  23 5MICHIGA 20001BELKNAP    00000000000000000000000000166616161161611160100000000000000000000000000000000000000000000000000000000000000000000000000000000000000000000000000000000000000000000000000000000000000000000000000000000000000000000000000000000000000000000000000000000000000000000000000000000000000000000000000000000000000000000000000000000000000000000000000
999596  21 3ILLINOI 20001BELKNAP    00000000000000000000000000000000000000000000000000000000000000000000000000000000000000000000000000000000000000000000000000000000000000000000000000000000000000000000000000000000000000000000000000000000000000000000000000000000000000000000000000000000000000000000000000000000000000000000000000000000000000000000000000000000000000000000000
999598  34 4MISSOUR 10001BELL       00000000000000000000000000000000000000000000000000000000000000000000000000000006199779916666666777166661160000000000000000000000000000000000000000000000000000000000000000000000000000000000000000000000000000000000000000000000000000000000000000000000000000000000000000000000000000000000000000000000000000000000000000000000000000000000000
999599  49 8TEXAS   10001BELL, C.K. 00000000000000000000000000000000000000000001661000000000000000000000000000000000000000000000000000000000000000000000000000000000000000000000000000000000000000000000000000000000000000000000000000000000000000000000000000000000000000000000000000000000000000000000000000000000000000000000000000000000000000000000000000000000000000000000000
999602  44 9GEORGIA 10002BELL, H.P. 65111100000000000000000000000000000000000000000000000000000000000000000000000000000000000000000000000000000000000000000000000000000000000000000000000000000000000000000000000000000000000000000000000000000000000000000000000000000000000000000000000000000000000000000000000000000000000000000000000000000000000000000000000000000000000000000
999607  62 2COLORAD 34001BELL, J.C. 00000000000000000000000000000000000000000001661868611660000000000000000000000000000000000000000000000000000000000000000000000000000000000000000000000000000000000000000000000000000000000000000000000000000000000000000000000000000000000000000000000000000000000000000000000000000000000000000000000000000000000000000000000000000000000000000
999608  4914TEXAS   10001BELL       00000000000000000000000000000000000000000000000000000000000000000000000000000000000000000000000000000000000000000000000000000050000000000000000000000000000000000000000000000000000000000000000000000000000000000000000000000000000000000000000000000000000000000000000000000000000000000000000000000000000000000000000000000000000000000000000
999614  44 9GEORGIA 10001BELL, T.M. 00000000000000000000000000000000000000000000000000000006699556199616666666666160000000000000000000000000000000000000000000000000000000000000000000000000000000000000000000000000000000000000000000000000000000000000000000000000000000000000000000000000000000000000000000000000000000000000000000000000000000000000000000000000000000000000000
999615  47 6NORTH C 10001BELLAMY    00000000000000000000000000000000000000000000000669998890000000000000000000000000000000000000000000000000000000000000000000000000000000000000000000000000000000000000000000000000000000000000000000000000000000000000000000000000000000000000000000000000000000000000000000000000000000000000000000000000000000000000000000000000000000000000000
999618  13 1NEW YOR 10001BELMONT, P.00000000000000096916699999000000000000000000000000000000000000000000000000000000000000000000000000000000000000000000000000000000000000000000000000000000000000000000000000000000000000000000000000000000000000000000000000000000000000000000000000000000000000000000000000000000000000000000000000000000000000000000000000000000000000000000000
999620  1419PENNSYL 10001BELTZHOOVER00000061291166190000000000000000000000000001691000000000000000000000000000000000000000000000000000000000000000000000000000000000000000000000000000000000000000000000000000000000000000000000000000000000000000000000000000000000000000000000000000000000000000000000000000000000000000000000000000000000000000000000000000000000000000000000000
999621  2499OHIO    20001BENDER     00000000000000000000000000000000000000000000000000000000000000000000000000000000000117761111111611611116610000000000000000001100000000000000000000000000000000000000000000000000000000000000000000000000000000000000000000000000000000000000000000000000000000000000000000000000000000000000000000000000000000000000000000000000000000000000000
999622  1331NEW YOR 10001BENEDICT, C91911100000000000000000000000000000000000000000000000000000000000000000000000000000000000000000000000000000000000000000000000000000000000000000000000000000000000000000000000000000000000000000000000000000000000000000000000000000000000000000000000000000000000000000000000000000000000000000000000000000000000000000000000000000000000000000
999625  22 4INDIANA 20001BENHAM, J. 00000000000000000000000000000000000000000000000000000000191229911191111111111990000000000000000000000000000000000000000000000000000000000000000000000000000000000000000000000000000000000000000000000000000000000000000000000000000000000000000000000000000000000000000000000000000000000000000000000000000000000000000000000000000000000000000
999628  1419PENNSYL 10001BENNER     00000000000000000000000000000000000000000000000000000000000000000000000000000000000000000000000000000000000000000000000000000000000000000000000000000000000000000000000000000000000000000000000000000000000000000000000000000000000000000000000000000000000000000000000000000000000000000000000000000000000000000000000000000000000000000000000
999629  1329NEW YOR 20001BENNET, A. 00000000000000000000000000000000000000000000000000000000000000000000000000000000000000000000000000071116600000000000000000000000000000000000000000000000000000000000000000000000000000000000000000000000000000000000000000000000000000000000000000000000000000000000000000000000000000000000000000000000000000000000000000000000000000000000000
999632  1317NEW YOR 20001BENNET, W. 00000000000000000000000000000000000000000000000000000001000000000000000000000000000000000000000000000000000000000000000000000000000000000000000000000000000000000000000000000000000000000000000000000000000000000000000000000000000000000000000000000000000000000000000000000000000000000000000000000000000000000000000000000000000000000000000
999633  43 2FLORIDA 10001BENNETT, C.00011000000000000000000001000000000000001000100000000010000000000000000000000000000000000000000000000000001161616111116161166666166666661666666611661116116166661161661666111166111116616661116161161111161111116161111116111666666616611116116116111111161111111611161611116666611111111111161111111611111111661116161661661000000000000000006
999634  13 5NEW YOR 20001BENNETT    00000000000000000000000000000000000000000000000000000000000000000000000000000000000000000000000000000000000000000000000000000000000000000000000000000000000000000000000000000000000000000000000000000000000000000000000000000000000000000000000000000000000000000000000000000000000000000000000000000000000000000000000000000000000000000000000
999639  2312MICHIGA 20001BENNETT, J.00011000000000000000000000000000000000000000600000000060000000000000000000000000000000000000111161100000016161616661661111161161161111161616611767170000060600000000000000000000000060000000000000000000000000000000000000000000000000060600000000000000000000000000000000000000060000000000000000000000000000000000000000006000000000000000006
999640  51 9KENTUCK 20001BENNET, J. 00000000000000000000000000000000000000000000000000000009000000000000000000000000000000000000000000000000000000000000000000000000000000000000000000000000000000000000000000000000000000000000000000000000000000000000000000000000000000000000000000000000000000000000000000000000000000000000000000000000000000000000000000000000000000000000000
999641  34 6MISSOUR 20002BENNETT, M.00000000000000000000000000000000000000000000000000000000000000000000000000000000000000000000111161111117710000000000000000000000000000000000000000000000000000000000000000000000000000000000000000000000000000000000000000000000000000000000000000000000000000000000000000000000000000000000000000000000000000000000000000000000000000000000000
999642  34 6MISSOUR 20001BENNETT    00000000000000000000000000000000000000000000000000000000000000000000000000000000000001161111000000000000000000000000000000000000000000000000000000000000000000000000000000000000000000000000000000000000000000000000000000000000000000000000000000000000000000000000000000000000000000000000000000000000000000000000000000000000000000000000000
999643  4799NORTH C 10001BENNETT, R.00000000000000006661169116000000000000000000000000000000000000000000000000000000000000000000000000000000000000000000000000000000000000000000000000000000000000000000000000000000000000000000000000000000000000000000000000000000000000000000000000000000000000000000000000000000000000000000000000000000000000000000000000000000000000000000000
999648  52 2MARYLAN 10022BENSON     00000000000000000000000000000000000000000000000000000000900000000000000000000000000000000000000000000000000000000000000000000000000000000000000000000000000000000000000000000000000000000000000000000000000000000000000000000000000000000000000000000000000000000000000000000000000000000000000000000000000000000000000000000000000000000000000
999652  23 8MICHIGA 20001BENTLEY    00000000000000000000000000000000000000001000100000000000000000000000000000000000000000000000000000000000000000000000000000000011771117716112000000000000000000000000000000000000000000000000000000000000000000000000000000000000000000000000000000000000000000000000000000000000000000000000000000000000000000000000000000000000000000000000000
999653  1323NEW YOR 10001BENTLEY    00000000000000000000000000000000000000000000000000000000000000000000000000000000000000000000000000000000000000000000000000000000000000000000000000000000000000000000000000000000000000000000000000000000000000000000000000000000000000000000000000000000000000000000000000000000000000000000000000000000000000000000000000000000000000000000000
999657  3415MISSOUR 10001BENTON     00000000000000000000000000000000000000000000000669611660000000000000000000000000000000000000000000000000000000000000000000000000000000000000000000000000000000000000000000000000000000000000000000000000000000000000000000000000000000000000000000000000000000000000000000000000000000000000000000000000000000000000000000000000000000000000000
999660  4915TEXAS   10001BENTSEN, L.00000000000000000000000000000000000000000000000000000000000000000000000000000000000000000000000000000000006616161111116161166600000000000000000000000000000000000000000000000000000000000000000000000000000000000000000000000000000000000000000000000000000000000000000000000000000000000000000000000000000000000000000000000000000000000000000
999662  12 1NEW JER 20001BERGEN     00000000000000000000000000166616161161611160100000000000000000000000000000000000000000000000000000000000000000000000000000000000000000000000000000000000000000000000000000000000000000000000000000000000000000000000000000000000000000000000000000000000000000000000000000000000000000000000000000000000000000000000000000000000000000000000000
999665  25 5WISCONS 38001BERGER, V. 00000000000000000000000000000000000000000000000000000000000000000000000000000000000000000000000000000000000000000000000000000000000000000000000000000000000000000000000000000000000000000000000000000000000000000000000000000000000000000000000000000000000000000000000000000000000000000000000000000000000000000000000000000000000000000000000
999667  33 8MINNESO 53701BERNARD    00000000000000000000000000000000000000000000000000000000000000000000000000000006161000000000000000000000000000000000000000000000000000000000000000000000000000000000000000000000000000000000000000000000000000000000000000000000000000000000000000000000000000000000000000000000000000000000000000000000000000000000000000000000000000000000000
999670  51 6KENTUCK 10001BERRY, A.S.00000000000000000000000000000000000000000001661889999960000000000000000000000000000000000000000000000000000000000000000000000000000000000000000000000000000000000000000000000000000000000000000000000000000000000000000000000000000000000000000000000000000000000000000000000000000000000000000000000000000000000000000000000000000000000000000
999671  71 3CALIFOR 10001BERRY      00000000001166960000000000000000000000000000000000000000000000000000000000000000000000000000000000000000000000000000000000000000000000000000000000000000000000000000000000000000000000000000000000000000000000000000000000000000000000000000000000000000000000000000000000000000000000000000000000000000000000000000000000000000000000000000000
999672  37 2SOUTH D 20001BERRY,     00000000000000000000000001000000000000001000100000000010000000000000000000000000000000000000000000000000000000000000000000011161211167161111661766661166119111661169171161127751119669999000000000000000000000000000000000000000000000000000000000000000000000000000000000000000000000000000000000000000000000000000000000000000000000000000000
999676  1428PENNSYL 10012BESHLIN    00000000000000000000000000000000000000000000000000000000000000000000000000000000000000000000000000000000000000000000000000000000000000000000000000000000000000000000000000000000000000000000000000000000000000000000000000000000000000000000000000000000000000000000000000000000000000000000000000000000000000000000000000000000000000000000000
999680  24 8OHIO    20001BETTS,     00000000000000000000000001000000000000001000100000000010000000000000000000000000000000000000000000000000000000000000000000006111611117116111261166111166111169661161711111111161116661616611116161961999999990000000000000000000000000000000000000000000000000000000000000000000000000000000000000000000000000000000000000000000000000000000000
999690  22 3INDIANA 10001BICKNELL, G66111161111166100000000000000000000000000000000000000000000000000000000000000000000000000000000000000000000000000000000000000000000000000000000000000000000000000000000000000000000000000000000000000000000000000000000000000000000000000000000000000000000000000000000000000000000000000000000000000000000000000000000000000000000000000000000
999699  25 5WISCONS 10001BIEMILLER, 00000000000000000000000000000000000000000000000000000000000000000000000000000000000000000000000000011176606616161666661616610000000000000000000000000000000000000000000000000000000000000000000000000000000000000000000000000000000000000000000000000000000000000000000000000000000000000000000000000000000000000000000000000000000000000000000
999700  31 4IOWA    10001BIERMANN   00000000000000000000000000000000000000000000000000000000000000000000000000000001616000000000000000000000000000000000000000000000000000000000000000000000000000000000000000000000000000000000000000000000000000000000000000000000000000000000000000000000000000000000000000000000000000000000000000000000000000000000000000000000000000000000000
999704  24 2OHIO    10001BIGLOW     00000000000000000000000000000000000000000000000000000000000000000000000000000006161000000000000000000000000000000000000000000000000000000000000000000000000000000000000000000000000000000000000000000000000000000000000000000000000000000000000000000000000000000000000000000000000000000000000000000000000000000000000000000000000000000000000
999708  71 2CALIFOR 10001BIGGS      00000000000000000000000000999999999999999990000000000000000000000000000000000000000000000000000000000000000000000000000000000000000000000000000000000000000000000000000000000000000000000000000000000000000000000000000000000000000000000000000000000000000000000000000000000000000000000000000000000000000000000000000000000000000000000000000
999713  35 4NEBRASK 10001BINDERUP   00000000000000000000000000000000000000000000000000000000000000000000000000000006152000000000000000000000000000000000000000000000000000000000000000000000000000000000000000000000000000000000000000000000000000000000000000000000000000000000000000000000000000000000000000000000000000000000000000000000000000000000000000000000000000000000000
999715  14 1PENNSYL 20001BINGHAM    00000016566611619916619661199916161161611969116999166119000000000000000000000000000000000000000000000000000000000000000000000000000000000000000000000000000000000000000000000000000000000000000000000000000000000000000000000000000000000000000000000000000000000000000000000000000000000000000000000000000000000000000000000000000000000000000
999721  12 5NEW JER 20022BIRCH      00000000000000000000000000000000000000000000000000000000000000000000000000000000000000000000000000000000000000000000000000000000000000000000000000000000000000000000000000000000000000000000000000000000000000000000000000000000000000000000000000000000000000000000000000000000000000000000000000000000000000000000000000000000000000000000000
999724  32 8KANSAS  20001BIRD, R.E. 00000000000000000000000000000000000000000000000000000000061111611161111111111610000000000000000000000000000000000000000000000000000000000000000000000000000000000000000000000000000000000000000000000000000000000000000000000000000000000000000000000000000000000000000000000000000000000000000000000000000000000000000000000000000000000000000
999730  43 2FLORIDA 20011BISBEE, H. 61656000000000009916611661000000000000000000000000000000000000000000000000000000000000000000000000000000000000000000000000000000000000000000000000000000000000000000000000000000000000000000000000000000000000000000000000000000000000000000000000000000000000000000000000000000000000000000000000000000000000000000000000000000000000000000000
