9991    3698NORTH D 20001AANDAHL,   00000000000000000000006770000000000000000000000000000000000000000000000000000000000000000000000000000000000000000000000000000000000000000000000000000000000000000000
9992    40 4VIRGINI 10022ABBITT, W. 00100010000000717761116716111661111611799116111199000000000000000000000000000000000000000000000000000000000000000000000000000000000000000000000000000000000000000000
99913   46 4MISSISS 10001ABERNETHY  00100010011111111661116676111111171691111666611199000000000000000000000000000000000000000000000000000000000000000000000000000000000000000000000000000000000000000000
99918   22 4INDIANA 20001ADAIR,     00100010000000000001011661111111111991111111100000000000000000000000000000000000000000000000000000000000000000000000000000000000000000000000000000000000000000000000
99919   2115ILLINOI 10001ADAIR, J.L.16161000000000000000000000000000000000000000000000000000000000000000000000000000000000000000000000000000000000000000000000000000000000000000000000000000000000000000
99939   4  2NEW HAM 20001ADAMS, S.  00000000000077000000000000000000000000000000000000000000000000000000000000000000000000000000000000000000000000000000000000000000000000000000000000000000000000000000
99946   1211NEW JER 10001ADDONIZIO, 00100010000000000161611711111111000000000000000000000000000000000000000000000000000000000000000000000000000000000000000000000000000000000000000000000000000000000000
99962   53 3OKLAHOM 10001ALBERT, C. 00100010000000611161611776111111111111111116100600000000000000000000000000000000000000000000000000000000000000000000000000000000000000000000000000000000000000000000
99982   47 9NORTH C 10001ALEXANDER  00100010000000000001010016117111000000000000000000000000000000000000000000000000000000000000000000000000000000000000000000000000000000000000000000000000000000000000
99985   33 3MINNESO 20001ALEXANDER  00100211000000000000000000000000000000000000000000000000000000000000000000000000000000000000000000000000000000000000000000000000000000000000000000000000000000000000
99992   42 5ARKANSA 32901ALFORD     00100010000000000001010010111711000000000000000000000000000000000000000000000000000000000000000000000000000000000000000000000000000000000000000000000000000000000000
99993   49 5TEXAS   20001ALGER      00000000000000000000000000066656177000000000000000000000000000000000000000000000000000000000000000000000000000000000000000000000000000000000000000000000000000000000
999100  45 8LOUISIA 10001ALLEN, A.  00100616161111711161617110000000000000000000000000000000000000000000000000000000000000000000000000000000000000000000000000000000000000000000000000000000000000000000
999116  71 7CALIFOR 20001ALLEN, J.  00100010000000111611111111111000000000000000000000000000000000000000000000000000000000000000000000000000000000000000000000000000000000000000000000000000000000000000
999121  2113ILLINOI 20001ALLEN, L.E.11116611111111121611111612211110000000000000000000000000000000000000000000000000000000000000000000000000000000000000000000000000000000000000000000000000000000000000
999127  1428PENNSYL 10001ALLEN, R.  00100611000000000000000000000000000000000000000000000000000000000000000000000000000000000000000000000000000000000000000000000000000000000000000000000000000000000000
999144  40 6VIRGINI 10022ALMOND, J. 00000000000000710000000000000000000000000000000000000000000000000000000000000000000000000000000000000000000000000000000000000000000000000000000000000000000000000000
999156  25 1WISCONS 37001AMLIE, T.R.61161000000000000000000000000000000000000000000000000000000000000000000000000000000000000000000000000000000000000000000000000000000000000000000000000000000000000000
999158  33 7MINNESO 20001ANDERSEN   00100611166167111661116611111111000000000000000000000000000000000000000000000000000000000000000000000000000000000000000000000000000000000000000000000000000000000000
999163  3412MISSOUR 10001ANDERSON, C00100616000000000000000000000000000000000000000000000000000000000000000000000000000000000000000000000000000000000000000000000000000000000000000000000000000000000000
999165  66 1NEW MEX 10001ANDERSON, C00000000191600000000000000000000000000000000000000000000000000000000000000000000000000000000000000000000000000000000000000000000000000000000000000000000000000000000
999173  71 8CALIFOR 20001ANDERSON, J00100111111111111611116610000000000000000000000000000000000000000000000000000000000000000000000000000000000000000000000000000000000000000000000000000000000000000000
999177  64 2MONTANA 10001ANDERSON  L00100010000000000001010010111110000000000000000000000000000000000000000000000000000000000000000000000000000000000000000000000000000000000000000000000000000000000000
999188  33 1MINNESO 20001ANDRESEN, A61116111161177711611726611110000000000000000000000000000000000000000000000000000000000000000000000000000000000000000000000000000000000000000000000000000000000000000
999189  3  6MASSACH 20001ANDREW, A.P71616060000000000006060060666006000000060000600000000060000000000000000000000000000000000000000000006000000000000000000000000000000000000000000000000000000000000000
999195  41 3ALABAMA 10022ANDREWS, G.00100010000111111661116116111111111611119616611600000000000000000000000000000000000000000000000000000000000000000000000000000000000000000000000000000000000000000000
999200  1340NEW YOR 20001ANDREWS, W.61627632111177711006060060666006000000060000600000000060000000000000000000000000000000000000000000006000000000000000000000000000000000000000000000000000000000000000
999205  13 8NEW YOR 10001ANFUSO,    00100010000000000001011710171211000000000000000000000000000000000000000000000000000000000000000000000000000000000000000000000000000000000000000000000000000000000000
999207  72 3OREGON  20001ANGELL     00100111161111111661611111100000000000000000000000000000000000000000000000000000000000000000000000000000000000000000000000000000000000000000000000000000000000000000
999226  2117ILLINOI 20001ARENDS, L.C61116711171111111622116611111111111611111111112119611119600000000000000000000000000000000000000000000000000000000000000000000000000000000000000000000000000000000000
999235  34 6MISSOUR 20001ARMSTRONG, 00000000000000000000006770000000000000000000000000000000000000000000000000000000000000000000000000000000000000000000000000000000000000000000000000000000000000000000
999242  2123ILLINOI 10001ARNOLD     00100617100000000000000000000000000000000000000000000000000000000000000000000000000000000000000000000000000000000000000000000000000000000000000000000000000000000000
999248  34 1MISSOUR 20001ARNOLD     00000000061111111000000000000000000000000000000000000000000000000000000000000000000000000000000000000000000000000000000000000000000000000000000000000000000000000000
999252  2123ILLINOI 10001ARNOLD, W.W16161000000000000000000000000000000000000000000000000000000000000000000000000000000000000000000000000000000000000000000000000000000000000000000000000000000000000000
999258  2417OHIO    10001ASHBROOK, W11177710000000000000000000000000000000000000000000000000000000000000000000000000000000000000000000000000000000000000000000000000000000000000000000000000000000000000
999267  24 9OHIO    10001ASHLEY     00100010000000000001010010111111711117111991116611211611611161161225551661161161116111100000000000000000000000000000000000000000000000000000000000000000000000000000
999270  48 4SOUTH C 10022ASHMORE    00100010000000000001010015711611111611100000000000000000000000000000000000000000000000000000000000000000000000000000000000000000000000000000000000000000000000000000
999275  62 4COLORAD 10001ASPINALL,  00100010000000000161611116111111111111111296616611000000000000000000000000000000000000000000000000000000000000000000000000000000000000000000000000000000000000000000
999291  12 3NEW JER 20001AUCHINCLOSS00100010011111112611111111111111111000000000000000000000000000000000000000000000000000000000000000000000000000000000000000000000000000000000000000000000000000000000
999293  1  4CONNECT 20001AUSTIN     00100612000000000000000000000000000000000000000000000000000000000000000000000000000000000000000000000000000000000000000000000000000000000000000000000000000000000000
999301  32 1KANSAS  20001AVERY      00100010000000000001010010111111177000000000000000000000000000000000000000000000000000000000000000000000000000000000000000000000000000000000000000000000000000000000
999307  64 2MONTANA 10001AYERS, R.E.61161000000000000000000000000000000000000000000000000000000000000000000000000000000000000000000000000000000000000000000000000000000000000000000000000000000000000000
999310  2414OHIO    20001AYRES,     00100010000000000001011111111111111117111999900000000000000000000000000000000000000000000000000000000000000000000000000000000000000000000000000000000000000000000000
999318  12 2NEW JER 20001BACHARACH, 71116000000000000000000000000000000000000000000000000000000000000000000000000000000000000000000000000000000000000000000000000000000000000000000000000000000000000000
999327  13 1NEW YOR 20001BACON, R.L.61625060000000000006060060666006000000060000600000000060000000000000000000000000000000000000000000006000000000000000000000000000000000000000000000000000000000000000
999339  56 3WEST VI 10001BAILEY, C. 00100010000061000261617711111111000000000000000000000000000000000000000000000000000000000000000000000000000000000000000000000000000000000000000000000000000000000000
999364  54 2TENNESS 20001BAKER, H.  00100010000000000001017111111111100000000000000000000000000000000000000000000000000000000000000000000000000000000000000000000000000000000000000000000000000000000000
999377  3411MISSOUR 20001BAKEWELL,  00100010000000171001011710000000000000000000000000000000000000000000000000000000000000000000000000000000000000000000000000000000000000000000000000000000000000000000
999381  52 2MARYLAN 10001BALDWIN, H.00000000079111000000000000000000000000000000000000000000000000000000000000000000000000000000000000000000000000000000000000000000000000000000000000000000000000000000
999387  71 6CALIFOR 20001BALDWIN    00100010000000000001010010111111111000000000000000000000000000000000000000000000000000000000000000000000000000000000000000000000000000000000000000000000000000000000
999388  1317NEW YOR 20022BALDWIN    00000000171571000000000000000000000000000000000000000000000000000000000000000000000000000000000000000000000000000000000000000000000000000000000000000000000000000000
999397  1  2CONNECT 20001BALL       00100611000000000000000000000000000000000000000000000000000000000000000000000000000000000000000000000000000000000000000000000000000000000000000000000000000000000000
999405  41 7ALABAMA 10011BANKHEAD   00000000000000000000000000000000000000000000000000000000000000000000000000000000000000000000000000000000000000000000000000000000000000000000000000000000000000000000
999406  41 7ALABAMA 10001BANKHEAD, W79977000000000000000000000000000000000000000000000000000000000000000000000000000000000000000000000000000000000000000000000000000000000000000000000000000000000000000
999412  34 8MISSOUR 20001BANTA, P.  00000000000000111000000000000000000000000000000000000000000000000000000000000000000000000000000000000000000000000000000000000000000000000000000000000000000000000000
999431  47 3NORTH C 10001BARDEN, G.A16161616191111177761777717717770000000000000000000000000000000000000000000000000000000000000000000000000000000000000000000000000000000000000000000000000000000000000
999433  65 1NEVADA  10001BARING, W. 00100010000000000777611610117111177911111166116999000000000000000000000000000000000000000000000000000000000000000000000000000000000000000000000000000000000000000000
999448  2120ILLINOI 10001BARNES     00100616100000000000000000000000000000000000000000000000000000000000000000000000000000000000000000000000000000000000000000000000000000000000000000000000000000000000
999458  2211INDIANA 10001BARR       00000000000000000000000000000110000000000000000000000000000000000000000000000000000000000000000000000000000000000000000000000000000000000000000000000000000000000000
999464  68 1WYOMING 20001BARRETT    00100010011111111611770000000000000000000000000000000000000000000000000000000000000000000000000000000000000000000000000000000000000000000000000000000000000000000000
999465  14 1PENNSYL 10001BARRETT, W.00100010000017000177617111111111111111111116112911111611611900000000000000000000000000000000000000000000000000000000000000000000000000000000000000000000000000000000
999476  1327NEW YOR 20001BARRY      00100010000000000001010010111111711000000000000000000000000000000000000000000000000000000000000000000000000000000000000000000000000000000000000000000000000000000000
999477  13 2NEW YOR 10022BARRY, W.B.00100617111577000000000000000000000000000000000000000000000000000000000000000000000000000000000000000000000000000000000000000000000000000000000000000000000000000000
999494  1317NEW YOR 20001BARTON     00100411000000000000000000000000000000000000000000000000000000000000000000000000000000000000000000000000000000000000000000000000000000000000000000000000000000000000
999503  4  2NEW HAM 20001BASS  P.   00100010000000000001010010111111000000000000000000000000000000000000000000000000000000000000000000000000000000000000000000000000000000000000000000000000000000000000
999504  54 6TENNESS 10001BASS  R.   00100010000000000001010010117117111000000000000000000000000000000000000000000000000000000000000000000000000000000000000000000000000000000000000000000000000000000000
999512  3  6MASSACH 20001BATES, G.  00100611111111111711000000000000000000000000000000000000000000000000000000000000000000000000000000000000000000000000000000000000000000000000000000000000000000000000
999516  51 8KENTUCK 10001BATES, J.  00100616116617766161617770000000000000000000000000000000000000000000000000000000000000000000000000000000000000000000000000000000000000000000000000000000000000000000
999518  3  6MASSACH 20022BATES, W.  00100010000000000001116611111111111111700000000000000000000000000000000000000000000000000000000000000000000000000000000000000000000000000000000000000000000000000000
999520  41 9ALABAMA 10001BATTLE, L. 00100010000000171661117116100000000000000000000000000000000000000000000000000000000000000000000000000000000000000000000000000000000000000000000000000000000000000000
999521  2413OHIO    20001BAUMHART   00100010100000000001010010111110000000000000000000000000000000000000000000000000000000000000000000000000000000000000000000000000000000000000000000000000000000000000
999546  52 6MARYLAN 20001BEALL      00100010071117111661611710000000000000000000000000000000000000000000000000000000000000000000000000000000000000000000000000000000000000000000000000000000000000000000
999548  21 4ILLINOI 10001BEAM, H.P. 16177517100000000000000000000000000000000000000000000000000000000000000000000000000000000000000000000000000000000000000000000000000000000000000000000000000000000000
999550  22 5INDIANA 20001BEAMER,    00100010000000000001011611111000000000000000000000000000000000000000000000000000000000000000000000000000000000000000000000000000000000000000000000000000000000000000
999563  13 3NEW YOR 20001BECKER     00100010000000000001010011171111111000000000000000000000000000000000000000000000000000000000000000000000000000000000000000000000000000000000000000000000000000000000
999567  49 3TEXAS   10001BECKWORTH  00100616111111111161611770111111111110000000000000000000000000000000000000000000000000000000000000000000000000000000000000000000000000000000000000000000000000000000
999587  1341NEW YOR 10001BEITER, A.F16161000100000000000000000000000000000000000000000000000000000000000000000000000000000000000000000000000000000000000000000000000000000000000000000000000000000000000
999590  53 8OKLAHOM 20001BELCHER,   00100010000000000001016611111111111111111999911111000000000000000000000000000000000000000000000000000000000000000000000000000000000000000000000000000000000000000000
999598  34 4MISSOUR 10001BELL, C.J. 76116617171711177000000000000000000000000000000000000000000000000000000000000000000000000000000000000000000000000000000000000000000000000000000000000000000000000000
999608  4914TEXAS   10001BELL       00000000000000000000000000060000000000000000000000000000000000000000000000000000000000000000000000000000000000000000000000000000000000000000000000000000000000000000
999621  2499OHIO    20001BENDER     00100111111111217001011717700000000000000000000000000000000000000000000000000000000000000000000000000000000000000000000000000000000000000000000000000000000000000000
999629  1329NEW YOR 20001BENNET, A. 00000000000011000000000000000000000000000000000000000000000000000000000000000000000000000000000000000000000000000000000000000000000000000000000000000000000000000000
999633  43 2FLORIDA 10001BENNETT, C.00100010000000000161116116111111161616611616116611611111111161116116111166166616611111161611116111111166111111111116100000000000000000000000000000000000000000000000
999639  2312MICHIGA 20001BENNETT, J.00100010071100111661611111111111177000000000000000000000000000000000000000000000000000000000000000000000000000000000000000000000000000000000000000000000000000000000
999641  34 6MISSOUR 20002BENNETT, M.00000000011111111000000000000000000000000000000000000000000000000000000000000000000000000000000000000000000000000000000000000000000000000000000000000000000000000000
999642  34 6MISSOUR 20001BENNETT    00000000100000000000000000000000000000000000000000000000000000000000000000000000000000000000000000000000000000000000000000000000000000000000000000000000000000000000
999652  23 8MICHIGA 20001BENTLEY    00100010000000000001010011111110000000000000000000000000000000000000000000000000000000000000000000000000000000000000000000000000000000000000000000000000000000000000
999660  4915TEXAS   10001BENTSEN, L.00100010000000000161116611100000000000000000000000000000000000000000000000000000000000000000000000000000000000000000000000000000000000000000000000000000000000000000
999666  1428PENNSYL 10001BERLIN, W.M16152000000000000000000000000000000000000000000000000000000000000000000000000000000000000000000000000000000000000000000000000000000000000000000000000000000000000000
999672  37 2SOUTH D 20001BERRY,     00100010000000000001017611111111711611119111100000000000000000000000000000000000000000000000000000000000000000000000000000000000000000000000000000000000000000000000
999680  24 8OHIO    20001BETTS,     00100010000000000001016661111111111111111111111161000000000000000000000000000000000000000000000000000000000000000000000000000000000000000000000000000000000000000000
999699  25 5WISCONS 10001BIEMILLER, 00100010000011000161610000000000000000000000000000000000000000000000000000000000000000000000000000000000000000000000000000000000000000000000000000000000000000000000
999700  31 4IOWA    10001BIERMANN, F16161000000000000000000000000000000000000000000000000000000000000000000000000000000000000000000000000000000000000000000000000000000000000000000000000000000000000000
999713  35 4NEBRASK 10001BINDERUP, C61161000000000000000000000000000000000000000000000000000000000000000000000000000000000000000000000000000000000000000000000000000000000000000000000000000000000000000
999731  2125ILLINOI 20001BISHOP     00100010111111171611611611100000000000000000000000000000000000000000000000000000000000000000000000000000000000000000000000000000000000000000000000000000000000000000
999758  23 6MICHIGA 20001BLACKNEY, W11116611111111111611771660000000000000000000000000000000000000000000000000000000000000000000000000000000000000000000000000000000000000000000000000000000000000000000
999785  40 1VIRGINI 10001BLAND, S.O.16661616161111716777060060666006000000060000600000000060000000000000000000000000000000000000000000006000000000000000000000000000000000000000000000000000000000000000
999788  4917TEXAS   10001BLANTON, T.16161000000000000000000000000000000000000000000000000000000000000000000000000000000000000000000000000000000000000000000000000000000000000000000000000000000000000000
999789  33 8MINNESO 10001BLATNIK, J.00100010000000666777617717771111711191191699119611299611900000000000000000000000000000000000000000000000000000000000000000000000000000000000000000000000000000000000
999798  44 8GEORGIA 10001BLITCH     00100010000000000001010010111111000000000000000000000000000000000000000000000000000000000000000000000000000000000000000000000000000000000000000000000000000000000000
999802  1319NEW YOR 10001BLOOM, S.  16162616116611516000000000000000000000000000000000000000000000000000000000000000000000000000000000000000000000000000000000000000000000000000000000000000000000000000
999820  22 8INDIANA 10001BOEHNE, J.W16111615100000000000000000000000000000000000000000000000000000000000000000000000000000000000000000000000000000000000000000000000000000000000000000000000000000000000
999823  11 1DELAWAR 20001BOGGS, J.  00100010000000111611771110000000000000000000000000000000000000000000000000000000000000000000000000000000000000000000000000000000000000000000000000000000000000000000
999824  45 2LOUISIA 10001BOGGS      00100010100000271161617111117112711111111116191699000000000000000000000000000000000000000000000000000000000000000000000000000000000000000000000000000000000000000000
999828  25 7WISCONS 37001BOILEAU, G.11161000000000000000000000000000000000000000000000000000000000000000000000000000000000000000000000000000000000000000000000000000000000000000000000000000000000000000
999830  3  2MASSACH 10001BOLAND     00100010000000000001010017711111111111111111111611111619111111161116661661661111111111161111199991111166111110000000000000000000000000000000000000000000000000000000
999831  1411PENNSYL 10001BOLAND, P.J16161616000000000000000000000000000000000000000000000000000000000000000000000000000000000000000000000000000000000000000000000000000000000000000000000000000000000000
999832  1411PENNSYL 10022BOLAND,MRS.00000000000000000000000000000000000000000000000000000000000000000000000000000000000000000000000000000000000000000000000000000000000000000000000000000000000000000000
999834  25 1WISCONS 20001BOLLES     00100111000000000000000000000000000000000000000000000000000000000000000000000000000000000000000000000000000000000000000000000000000000000000000000000000000000000000
999835  34 5MISSOUR 10001BOLLING, R.00100010000000000161611111111171711991919111111699111619691111161119999999999961119111161111900000000000000000000000000000000000000000000000000000000000000000000000
999836  2422OHIO    20001BOLTON, C.C11625610000000000006060060666006000000060000600000000060000000000000000000000000000000000000000000006000000000000000000000000000000000000000000000000000000000000000
999837  2422OHIO    20022BOLTON,F.P.00100010116177177577111711111111111611100000000000000000000000000000000000000000000000000000000000000000000000000000000000000000000000000000000000000000000000000000
999838  2411OHIO    20001BOLTON  O. 00100010000000000001010011110000111000000000000000000000000000000000000000000000000000000000000000000000000000000000000000000000000000000000000000000000000000000000
999839  52 2MARYLAN 10001BOLTON, W. 00100010000000000761610000000000000000000000000000000000000000000000000000000000000000000000000000000000000000000000000000000000000000000000000000000000000000000000
999845  1411PENNSYL 20001BONIN      00100010000000000001010011100000000000000000000000000000000000000000000000000000000000000000000000000000000000000000000000000000000000000000000000000000000000000000
999846  47 1NORTH C 10022BONNER     00100010161111211277116717717111111000000000000000000000000000000000000000000000000000000000000000000000000000000000000000000000000000000000000000000000000000000000
999863  53 4OKLAHOM 10001BOREN      00100616111171000000000000000000000000000000000000000000000000000000000000000000000000000000000000000000000000000000000000000000000000000000000000000000000000000000
999868  13 5NEW YOR 20001BOSCH      00100010000000000001010011111110000000000000000000000000000000000000000000000000000000000000000000000000000000000000000000000000000000000000000000000000000000000000
999869  67 2UTAH    10001BOSONE, R. 00100010000000000161611110000000000000000000000000000000000000000000000000000000000000000000000000000000000000000000000000000000000000000000000000000000000000000000
999891  2416OHIO    20001BOW,       00100010000000000001016611111111111611111111111169000000000000000000000000000000000000000000000000000000000000000000000000000000000000000000000000000000000000000000
999912  21 7ILLINOI 10002BOWLER     00100010000000000001010011110000000000000000000000000000000000000000000000000000000000000000000000000000000000000000000000000000000000000000000000000000000000000000
999913  1  2CONNECT 10001BOWLES     00000000000000000000000000000110000000000000000000000000000000000000000000000000000000000000000000000000000000000000000000000000000000000000000000000000000000000000
999937  41 1ALABAMA 10022BOYKIN, F.W00100475112117171161111711111111000000000000000000000000000000000000000000000000000000000000000000000000000000000000000000000000000000000000000000000000000000000000
999938  1315NEW YOR 10001BOYLAN, J.J16161000000000000000000000000000000000000000000000000000000000000000000000000000000000000000000000000000000000000000000000000000000000000000000000000000000000000000
999939  2112ILLINOI 10001BOYLE      00100010000000000001010010111000000000000000000000000000000000000000000000000000000000000000000000000000000000000000000000000000000000000000000000000000000000000000
999948  22 3INDIANA 10001BRADEMAS   00100010000000000001010010111111111111111661111611111111111111161116661661161161191611100000000000000000000000000000000000000000000000000000000000000000000000000000
999953  2311MICHIGA 20001BRADLEY, F.00100612111171000000000000000000000000000000000000000000000000000000000000000000000000000000000000000000000000000000000000000000000000000000000000000000000000000000
999954  14 3PENNSYL 10001BRADLEY, M.00100616196616000000000000000000000000000000000000000000000000000000000000000000000000000000000000000000000000000000000000000000000000000000000000000000000000000000
999961  7118CALIFOR 20001BRADLEY, W.00000000000000111000000000000000000000000000000000000000000000000000000000000000000000000000000000000000000000000000000000000000000000000000000000000000000000000000
999971  7111CALIFOR 20001BRAMBLETT, 00100010000000111577116761100000000000000000000000000000000000000000000000000000000000000000000000000000000000000000000000000000000000000000000000000000000000000000
999986  22 7INDIANA 20001BRAY,      00100010000000000001011611111111111111111111119611611111100000000000000000000000000000000000000000000000000000000000000000000000000000000000000000000000000000000000
999997  32 5KANSAS  10001BREEDING   00100010000000000001010010111111000000000000000000000000000000000000000000000000000000000000000000000000000000000000000000000000000000000000000000000000000000000000
999998  24 3OHIO    10001BREEN, E.  00100010000000000161570000000000000000000000000000000000000000000000000000000000000000000000000000000000000000000000000000000000000000000000000000000000000000000000
9991000 2411OHIO    20001BREHM      00000000011117111577721660000000000000000000000000000000000000000000000000000000000000000000000000000000000000000000000000000000000000000000000000000000000000000000
9991004 2199ILLINOI 10001BRENNAN, M.16161000000000000000000000000000000000000000000000000000000000000000000000000000000000000000000000000000000000000000000000000000000000000000000000000000000000000000
9991018 52 2MARYLAN 10001BREWSTER   00100010000000000001010010111111000000000000000000000000000000000000000000000000000000000000000000000000000000000000000000000000000000000000000000000000000000000000
9991021 2  3MAINE   20001BREWSTER, R61116171000000000000000000000000000000000000000000000000000000000000000000000000000000000000000000000000000000000000000000000000000000000000000000000000000000000000
9991050 35 3NEBRASK 10001BROCK      00000000000000000000000000000610000000000000000000000000000000000000000000000000000000000000000000000000000000000000000000000000000000000000000000000000000000000000
9991077 49 2TEXAS   10001BROOKS  J. 00100010000000000001010016111111111111191666111619199611691191111116661661161111111191161611116119111166111991111111161111611100000000000000000000000000000000000000
9991079 1430PENNSYL 10001BROOKS, J.T16162000000000000000000000000000000000000000000000000000000000000000000000000000000000000000000000000000000000000000000000000000000000000000000000000000000000000000
9991081 45 4LOUISIA 10001BROOKS     00100616161711111161617716711111000000000000000000000000000000000000000000000000000000000000000000000000000000000000000000000000000000000000000000000000000000000000
9991087 2318MICHIGA 20001BROOMFIELD 00100010000000000001010010111111111111711661116119611111111111116116191166616611111191111111116166191166116111116661900000000000000000000000000000000000000000000000
9991088 25 4WISCONS 20001BROPHY, J. 00000000000000111000000000000000000000000000000000000000000000000000000000000000000000000000000000000000000000000000000000000000000000000000000000000000000000000000
9991103 34 7MISSOUR 10001BROWN  CHAR00100010000000000001010010111110000000000000000000000000000000000000000000000000000000000000000000000000000000000000000000000000000000000000000000000000000000000000
9991104 24 7OHIO    20001BROWN, C.  00100612111211117611117611111111171000000000000000000000000000000000000000000000000000000000000000000000000000000000000000000000000000000000000000000000000000000000
9991130 4410GEORGIA 10001BROWN, P.  16161611111111111161116116111110000000000000000000000000000000000000000000000000000000000000000000000000000000000000000000000000000000000000000000000000000000000000
9991131 2311MICHIGA 10001BROWN, P.M.76177000000000000000000000000000000000000000000000000000000000000000000000000000000000000000000000000000000000000000000000000000000000000000000000000000000000000000
9991152 2211INDIANA 20001BROWNSON,  00100010000000000001016717771000000000000000000000000000000000000000000000000000000000000000000000000000000000000000000000000000000000000000000000000000000000000000
9991154 4010VIRGINI 20001BROYHILL   00100010000000000001010011111111711111111111111191611111100000000000000000000000000000000000000000000000000000000000000000000000000000000000000000000000000000000000
9991161 1423PENNSYL 20022BRUMBOUGH  00000000071971000000000000000000000000000000000000000000000000000000000000000000000000000000000000000000000000000000000000000000000000000000000000000000000000000000
9991166 13 2NEW YOR 10011BRUNNER, W.16161000000000000000000000000000000000000000000000000000000000000000000000000000000000000000000000000000000000000000000000000000000000000000000000000000000000000000
9991181 48 4SOUTH C 10001BRYSON     00100616111111111161116110000000000000000000000000000000000000000000000000000000000000000000000000000000000000000000000000000000000000000000000000000000000000000000
9991184 1433PENNSYL 10022BUCHANAN,  00100010000000566161610000000000000000000000000000000000000000000000000000000000000000000000000000000000000000000000000000000000000000000000000000000000000000000000
9991188 4910TEXAS   10001BUCHANAN, J16161000000000000000000000000000000000000000000000000000000000000000000000000000000000000000000000000000000000000000000000000000000000000000000000000000000000000000
9991190 1433PENNSYL 10022BUCHANAN, V00100010000000000001011111170000000000000000000000000000000000000000000000000000000000000000000000000000000000000000000000000000000000000000000000000000000000000000
9991197 1311NEW YOR 20022BUCK       00000000000111111000000000000000000000000000000000000000000000000000000000000000000000000000000000000000000000000000000000000000000000000000000000000000000000000000
9991198 71 3CALIFOR 10001BUCK, F.H. 16161616100000000000000000000000000000000000000000000000000000000000000000000000000000000000000000000000000000000000000000000000000000000000000000000000000000000000
9991201 2112ILLINOI 20001BUCKBEE, J.61111000000000000000000000000000000000000000000000000000000000000000000000000000000000000000000000000000000000000000000000000000000000000000000000000000000000000000
9991204 33 9MINNESO 53701BUCKLER, R.61161116100000000000000000000000000000000000000000000000000000000000000000000000000000000000000000000000000000000000000000000000000000000000000000000000000000000000
9991205 1323NEW YOR 10001BUCKLEY, C.76152617976177515777611717777771777000000000000000000000000000000000000000000000000000000000000000000000000000000000000000000000000000000000000000000000000000000000
9991208 21 4ILLINOI 10001BUCKLEY, J.00100010000000000161610000000000000000000000000000000000000000000000000000000000000000000000000000000000000000000000000000000000000000000000000000000000000000000000
9991215 63 2IDAHO   20001BUDGE,     00100010000000000001017611111110000000000000000000000000000000000000000000000000000000000000000000000000000000000000000000000000000000000000000000000000000000000000
9991218 35 2NEBRASK 20001BUFFETT    00000000011111111000006660000000000000000000000000000000000000000000000000000000000000000000000000000000000000000000000000000000000000000000000000000000000000000000
9991235 4710NORTH C 10001BULWINKLE, 16177616111717171777770000000000000000000000000000000000000000000000000000000000000000000000000000000000000000000000000000000000000000000000000000000000000000000000
9991239 65 1NEVADA  10001BUNKER, B. 00000000000017000000000000000000000000000000000000000000000000000000000000000000000000000000000000000000000000000000000000000000000000000000000000000000000000000000
9991245 40 5VIRGINI 10001BURCH, T.G.16652616111771000006060060666006000000060000600000000060000000000000000000000000000000000000000000006000000000000000000000000000000000000000000000000000000000000000
9991248 1315NEW YOR 10001BURCHILL   00000000076600000000000000000000000000000000000000000000000000000000000000000000000000000000000000000000000000000000000000000000000000000000000000000000000000000000
9991252 3698NORTH D 10001BURDICK    00000000000000000000000000000100000000000000000000000000000000000000000000000000000000000000000000000000000000000000000000000000000000000000000000000000000000000000
9991254 3698NORTH D 20001BURDICK, U.61661111161600000661611171117006000000060000600000000060000000000000000000000000000000000000000000006000000000000000000000000000000000000000000000000000000000000000
9991258 47 8NORTH C 10001BURGIN     00000636111911000000000000000000000000000000000000000000000000000000000000000000000000000000000000000000000000000000000000000000000000000000000000000000000000000000
9991264 51 3KENTUCK 10001BURKE  F.  00100010000000000001010010111111000000000000000000000000000000000000000000000000000000000000000000000000000000000000000000000000000000000000000000000000000000000000
9991265 3 13MASSACH 10001BURKE  J.  00100010000000000001010010111111111111611116111611111611111111921116661661161161900000000000000000000000000000000000000000000000000000000000000000000000000000000000
9991269 24 3OHIO    20001BURKE, R.  00000000000000711000000000000000000000000000000000000000000000000000000000000000000000000000000000000000000000000000000000000000000000000000000000000000000000000000
9991273 24 9OHIO    10001BURKE, T.  00100010000000000161610000000000000000000000000000000000000000000000000000000000000000000000000000000000000000000000000000000000000000000000000000000000000000000000
9991282 4917TEXAS   10001BURLESON,  00100010000000711161117676661661111191111116111169111161611161611111111166115266100000000000000000000000000000000000000000000000000000000000000000000000000000000000
9991292 62 3COLORAD 10022BURNEY     00000000000000000000000000000000000000000000000000000000000000000000000000000000000000000000000000000000000000000000000000000000000000000000000000000000000000000000
9991294 7120CALIFOR 20001BURNHAM, G.61177000000000000000000000000000000000000000000000000000000000000000000000000000000000000000000000000000000000000000000000000000000000000000000000000000000000000000
9991300 56 4WEST VI 10001BURNSIDE,  00100010000000000757611110110000000000000000000000000000000000000000000000000000000000000000000000000000000000000000000000000000000000000000000000000000000000000000
9991316 40 6VIRGINI 10001BURTON, C. 00100010000000000161116110000000000000000000000000000000000000000000000000000000000000000000000000000000000000000000000000000000000000000000000000000000000000000000
9991324 21 3ILLINOI 20001BUSBEY     00100010011700111001017681100000000000000000000000000000000000000000000000000000000000000000000000000000000000000000000000000000000000000000000000000000000000000000
9991328 1415PENNSYL 20001BUSH,      00100010000000000001016617711000000000000000000000000000000000000000000000000000000000000000000000000000000000000000000000000000000000000000000000000000000000000000
9991340 1342NEW YOR 20022BUTLER     00000000111111111000001620000000000000000000000000000000000000000000000000000000000000000000000000000000000000000000000000000000000000000000000000000000000000000000
9991366 56 6WEST VI 10001BYRD       00100010000000000001010011111000000000000000000000000000000000000000000000000000000000000000000000000000000000000000000000000000000000000000000000000000000000000000
9991367 21 3ILLINOI 20001BYRNE  E.  00100010000000000001010010111000000000000000000000000000000000000000000000000000000000000000000000000000000000000000000000000000000000000000000000000000000000000000
9991368 14 3PENNSYL 10001BYRNE      00100010000000000001010011111111111111111299991619000000000000000000000000000000000000000000000000000000000000000000000000000000000000000000000000000000000000000000
9991369 1328NEW YOR 10001BYRNE      00100676116577566277611000000000000000000000000000000000000000000000000000000000000000000000000000000000000000000000000000000000000000000000000000000000000000000000
9991371 25 8WISCONS 20001BYRNES, J. 00100010000011111616161111161111111111111111111161000000000000000000000000000000000000000000000000000000000000000000000000000000000000000000000000000000000000000000
9991372 54 5TENNESS 10001BYRNS, J.W.06100000000000000000000000000000000000000000000000000000000000000000000000000000000000000000000000000000000000000000000000000000000000000000000000000000000000000000
9991373 54 5TENNESS 10001BYRNS      00100616000000000000000000000000000000000000000000000000000000000000000000000000000000000000000000000000000000000000000000000000000000000000000000000000000000000000
9991375 52 6MARYLAN 10022BYRON,MRS. 00000000900000000000000000000000000000000000000000000000000000000000000000000000000000000000000000000000000000000000000000000000000000000000000000000000000000000000
9991376 52 6MARYLAN 10001BYRON      00000636000000000000000000000000000000000000000000000000000000000000000000000000000000000000000000000000000000000000000000000000000000000000000000000000000000000000
9991393 12 1NEW JER 20001CAHILL     00100010000000000001010010111111711111199000000000000000000000000000000000000000000000000000000000000000000000000000000000000000000000000000000000000000000000000000
9991412 43 3FLORIDA 10001CALDWELL, M16161617000000000000000000000000000000000000000000000000000000000000000000000000000000000000000000000000000000000000000000000000000000000000000000000000000000000000
9991439 44 4GEORGIA 10022CAMP       00100011111611111161117777100000000000000000000000000000000000000000000000000000000000000000000000000000000000000000000000000000000000000000000000000000000000000000
9991445 43 1FLORIDA 10001CAMPBELL   00100010000000000001010011100000000000000000000000000000000000000000000000000000000000000000000000000000000000000000000000000000000000000000000000000000000000000000
9991450 1429PENNSYL 20001CAMPBELL,  00000000000077000000000000000000000000000000000000000000000000000000000000000000000000000000000000000000000000000000000000000000000000000000000000000000000000000000
9991476 12 8NEW JER 20001CANFIELD   00100010161117111611611111111110000000000000000000000000000000000000000000000000000000000000000000000000000000000000000000000000000000000000000000000000000000000000
9991478 43 4FLORIDA 10001CANNON, A. 00100116197711000000000000000000000000000000000000000000000000000000000000000000000000000000000000000000000000000000000000000000000000000000000000000000000000000000
9991479 34 9MISSOUR 10001CANNON, C. 11161616166666611161611111111111100000000000000000000000000000000000000000000000000000000000000000000000000000000000000000000000000000000000000000000000000000000000
9991486 25 4WISCONS 10001CANNON, R. 71161000000000000000000000000000000000000000000000000000000000000000000000000000000000000000000000000000000000000000000000000000000000000000000000000000000000000000
9991493 1313NEW YOR 10001CAPOZZOLI  00000000166600000000000000000000000000000000000000000000000000000000000000000000000000000000000000000000000000000000000000000000000000000000000000000000000000000000
9991499 51 4KENTUCK 10011CARDEN, C. 16100000000000000000000000000000000000000000000000000000000000000000000000000000000000000000000000000000000000000000000000000000000000000000000000000000000000000000
9991510 32 6KANSAS  20001CARLSON, F.61116651111117000000000000000000000000000000000000000000000000000000000000000000000000000000000000000000000000000000000000000000000000000000000000000000000000000000
9991512 47 7NORTH C 10001CARLYLE, F.00100010000000000777116777710000000000000000000000000000000000000000000000000000000000000000000000000000000000000000000000000000000000000000000000000000000000000000
9991514 41 8ALABAMA 10001CARMICHAEL 16167000000000000000000000000000000000000000000000000000000000000000000000000000000000000000000000000000000000000000000000000000000000000000000000000000000000000000
9991517 34 8MISSOUR 10001CARNAHAN,  00100010000011000161611171117110000000000000000000000000000000000000000000000000000000000000000000000000000000000000000000000000000000000000000000000000000000000000
9991526 32 4KANSAS  10001CARPENTER, 66161000000000000000000000000000000000000000000000000000000000000000000000000000000000000000000000000000000000000000000000000000000000000000000000000000000000000000
9991532 51 4KENTUCK 20022CARRIER    00000000011100000000000000000000000000000000000000000000000000000000000000000000000000000000000000000000000000000000000000000000000000000000000000000000000000000000
9991533 1414PENNSYL 20022CARRIGG,   00100010000000000001010111111000000000000000000000000000000000000000000000000000000000000000000000000000000000000000000000000000000000000000000000000000000000000000
9991540 62 1COLORAD 10001CARROLL, J.00100010000000656161570000000000000000000000000000000000000000000000000000000000000000000000000000000000000000000000000000000000000000000000000000000000000000000000
9991542 2416OHIO    20001CARSON     00000000011100111000000000000000000000000000000000000000000000000000000000000000000000000000000000000000000000000000000000000000000000000000000000000000000000000000
9991545 71 6CALIFOR 20001CARTER, A.E61177111171100000000000000000000000000000000000000000000000000000000000000000000000000000000000000000000000000000000000000000000000000000000000000000000000000000000
9991549 31 4IOWA    10011CARTER     00000000000000000000000000000000000000000000000000000000000000000000000000000000000000000000000000000000000000000000000000000000000000000000000000000000000000000000
9991556 53 3OKLAHOM 10001CARTWRIGHT 16167116100000000000000000000000000000000000000000000000000000000000000000000000000000000000000000000000000000000000000000000000000000000000000000000000000000000000
9991563 51 2KENTUCK 10001CARY, G.H. 16177000000000000000000000000000000000000000000000000000000000000000000000000000000000000000000000000000000000000000000000000000000000000000000000000000000000000000
9991569 12 6NEW JER 20001CASE,  C.P.00100010000011211661611110000000000000000000000000000000000000000000000000000000000000000000000000000000000000000000000000000000000000000000000000000000000000000000
9991570 37 2SOUTH D 20001CASE       00100171111171111616110000000000000000000000000000000000000000000000000000000000000000000000000000000000000000000000000000000000000000000000000000000000000000000000
9991574 3  3MASSACH 10001CASEY, J.E.16177636100000000000000000000000000000000000000000000000000000000000000000000000000000000000000000000000000000000000000000000000000000000000000000000000000000000000
9991577 4922TEXAS   10001CASEY      00100010000000000001010010111111111111111616116611111111611000000000000000000000000000000000000000000000000000000000000000000000000000000000000000000000000000000000
9991589 44 3GEORGIA 10001CASTELLOW, 16161000000000000000000000000000000000000000000000000000000000000000000000000000000000000000000000000000000000000000000000000000000000000000000000000000000000000000
9991607 1423PENNSYL 10001CAVALCANTE,00100010000000000161610000000000000000000000000000000000000000000000000000000000000000000000000000000000000000000000000000000000000000000000000000000000000000000000
9991609 1211NEW JER 20001CAVICCHIA, 61116000000000000000000000000000000000000000000000000000000000000000000000000000000000000000000000000000000000000000000000000000000000000000000000000000000000000000
9991610 2310MICHIGA 20001CEDERBERG  00100010000000000001010011111111111611111111111111611111611191161111161161615511100000000000000000000000000000000000000000000000000000000000000000000000000000000000
9991611 1310NEW YOR 10001CELLER, E. 15261717112111575161517112111171171191719116111691000000000000000000000000000000000000000000000000000000000000000000000000000000000000000000000000000000000000000000
9991614 14 7PENNSYL 20001CHADWICK,  00000000000000111000000000000000000000000000000000000000000000000000000000000000000000000000000000000000000000000000000000000000000000000000000000000000000000000000
9991620 23 6MICHIGA 20001CHAMBERLAIN00100010000000000001010010111111111611111111111111611111600000000000000000000000000000000000000000000000000000000000000000000000000000000000000000000000000000000000
9991639 54 9TENNESS 10001CHANDLER, W16161610000000000000000000000000000000000000000000000000000000000000000000000000000000000000000000000000000000000000000000000000000000000000000000000000000000000000
9991659 51 6KENTUCK 10001CHAPMAN, V.75161677191111777000000000000000000000000000000000000000000000000000000000000000000000000000000000000000000000000000000000000000000000000000000000000000000000000000
9991667 35 2NEBRASK 20001CHASE      00000000000000000000000000060000000000000000000000000000000000000000000000000000000000000000000000000000000000000000000000000000000000000000000000000000000000000000
9991676 47 5NORTH C 10001CHATHAM, R.00100010000000000777117776110000000000000000000000000000000000000000000000000000000000000000000000000000000000000000000000000000000000000000000000000000000000000000
9991682 51 4KENTUCK 10001CHELF, F.  00100010000011116161617717711111711190000000000000000000000000000000000000000000000000000000000000000000000000000000000000000000000000000000000000000000000000000000
9991684 62 3COLORAD 20001CHENOWETH  00100010711711111001016611111111711000000000000000000000000000000000000000000000000000000000000000000000000000000000000000000000000000000000000000000000000000000000
9991685 2111ILLINOI 10001CHESNEY, C.00100010000000000161610000000000000000000000000000000000000000000000000000000000000000000000000000000000000000000000000000000000000000000000000000000000000000000000
9991702 2115ILLINOI 20001CHIPERFIELD00100111111111721611116611171111000000000000000000000000000000000000000000000000000000000000000000000000000000000000000000000000000000000000000000000000000000000000
9991715 33 5MINNESO 20001CHRISTIANSO61116000000000000000000000000000000000000000000000000000000000000000000000000000000000000000000000000000000000000000000000000000000000000000000000000000000000000000
9991717 34 6MISSOUR 10001CHRISTOPHER00100010000000000161610010117000000000000000000000000000000000000000000000000000000000000000000000000000000000000000000000000000000000000000000000000000000000000000
9991719 14 4PENNSYL 10001CHUDOFF, E.00100010000000000261611111110000000000000000000000000000000000000000000000000000000000000000000000000000000000000000000000000000000000000000000000000000000000000000
9991722 2113ILLINOI 20001CHURCH,    00100010000000000001016611111111000000000000000000000000000000000000000000000000000000000000000000000000000000000000000000000000000000000000000000000000000000000000
9991723 2110ILLINOI 20001CHURCH, R.E61116611011111171616000000000000000000000000000000000000000000000000000000000000000000000000000000000000000000000000000000000000000000000000000000000000000000000000
9991730 1 99CONNECT 10001CITRON, W.M16169000000000000000000000000000000000000000000000000000000000000000000000000000000000000000000000000000000000000000000000000000000000000000000000000000000000000000
9991735 3412MISSOUR 10001CLAIBORNE, 17916000000000000000000000000000000000000000000000000000000000000000000000000000000000000000000000000000000000000000000000000000000000000000000000000000000000000000
9991748 23 6MICHIGA 20001CLARDY     00100010000000000001010011100000000000000000000000000000000000000000000000000000000000000000000000000000000000000000000000000000000000000000000000000000000000000000
9991760 63 2IDAHO   10001CLARK, D.W.66177000000000000000000000000000000000000000000000000000000000000000000000000000000000000000000000000000000000000000000000000000000000000000000000000000000000000000
9991763 1425PENNSYL 10001CLARK      00100010000000000001010010111111111111111196111611299991100000000000000000000000000000000000000000000000000000000000000000000000000000000000000000000000000000000000
9991771 47 7NORTH C 10001CLARK, J.B.16161676111711777000000000000000000000000000000000000000000000000000000000000000000000000000000000000000000000000000000000000000000000000000000000000000000000000000
9991803 3  2MASSACH 20001CLASON     00100111111111211000000000000000000000000000000000000000000000000000000000000000000000000000000000000000000000000000000000000000000000000000000000000000000000000000
9991816 2411OHIO    10001CLAYPOOL   00100611100000000000000000000000000000000000000000000000000000000000000000000000000000000000000000000000000000000000000000000000000000000000000000000000000000000000
9991829 13 4NEW YOR 10001CLEMENTE,  00100010000000000161611110000000000000000000000000000000000000000000000000000000000000000000000000000000000000000000000000000000000000000000000000000000000000000000
9991831 51 2KENTUCK 10001CLEMENTS,  00000000000071000000000000000000000000000000000000000000000000000000000000000000000000000000000000000000000000000000000000000000000000000000000000000000000000000000
9991839 24 5OHIO    20001CLEVENGER  00100611111111111616116661111000000000000000000000000000000000000000000000000000000000000000000000000000000000000000000000000000000000000000000000000000000000000000
9991851 2124ILLINOI 20022CLIPPINGER,00000000000000717000000000000000000000000000000000000000000000000000000000000000000000000000000000000000000000000000000000000000000000000000000000000000000000000000
9991857 1329NEW YOR 20001CLUETT     00100611100000000000000000000000000000000000000000000000000000000000000000000000000000000000000000000000000000000000000000000000000000000000000000000000000000000000
9991861 31 6IOWA    10001COAD       00100010000000000001010010111111000000000000000000000000000000000000000000000000000000000000000000000000000000000000000000000000000000000000000000000000000000000000
9991882 3413MISSOUR 10001COCHRAN, J.16177616166611000000000000000000000000000000000000000000000000000000000000000000000000000000000000000000000000000000000000000000000000000000000000000000000000000000
9991897 35 5NEBRASK 10001COFFEE, H.B16161611900000000000000000000000000000000000000000000000000000000000000000000000000000000000000000000000000000000000000000000000000000000000000000000000000000000000
9991899 73 6WASHING 10001COFFEE, J. 00100116166616000000000000000000000000000000000000000000000000000000000000000000000000000000000000000000000000000000000000000000000000000000000000000000000000000000
9991901 1426PENNSYL 10011COFFEY, R. 00000000000000000000000000000000000000000000000000000000000000000000000000000000000000000000000000000000000000000000000000000000000000000000000000000000000000000000
9991904 2  2MAINE   10001COFFIN     00100010000000000001010010111110000000000000000000000000000000000000000000000000000000000000000000000000000000000000000000000000000000000000000000000000000000000000
9991905 2313MICHIGA 20001COFFIN, H. 00000000000000117000000000000000000000000000000000000000000000000000000000000000000000000000000000000000000000000000000000000000000000000000000000000000000000000000
9991911 71 7CALIFOR 10001COHELAN    00100010000000000001010010111111111111111999900000000000000000000000000000000000000000000000000000000000000000000000000000000000000000000000000000000000000000000000
9991919 7117CALIFOR 10001COLDEN, C.J66161000000000000000000000000000000000000000000000000000000000000000000000000000000000000000000000000000000000000000000000000000000000000000000000000000000000000000
9991920 32 1KANSAS  20001COLE, A.M. 00100010000071111611111610000000000000000000000000000000000000000000000000000000000000000000000000000000000000000000000000000000000000000000000000000000000000000000
9991928 34 3MISSOUR 20001COLE, W.C. 00100010011111111001010011100000000000000000000000000000000000000000000000000000000000000000000000000000000000000000000000000000000000000000000000000000000000000000
9991930 52 2MARYLAN 10001COLE, W.P. 16111617100000000000000000000000000000000000000000000000000000000000000000000000000000000000000000000000000000000000000000000000000000000000000000000000000000000000
9991931 1337NEW YOR 20001COLE, W.S. 11116611191171772577277611170000000000000000000000000000000000000000000000000000000000000000000000000000000000000000000000000000000000000000000000000000000000000000
9991941 2110ILLINOI 20001COLLIER    00100010000000000001010010111111111911719111111911611169600000000000000000000000000000000000000000000000000000000000000000000000000000000000000000000000000000000000
9991949 46 5MISSISS 10001COLLINS    00000176900000000000000000000000000000000000000000000000000000000000000000000000000000000000000000000000000000000000000000000000000000000000000000000000000000000000
9991950 7119CALIFOR 20001COLLINS, S.61177000000000000000000000000000000000000000000000000000000000000000000000000000000000000000000000000000000000000000000000000000000000000000000000000000000000000000
9991952 46 6MISSISS 10001COLMER, W.M16161619111111171661116616111111111191119299991691000000000000000000000000000000000000000000000000000000000000000000000000000000000000000000000000000000000000000000
9991960 49 2TEXAS   10001COMBS, J.M.00100010000016711161611710000000000000000000000000000000000000000000000000000000000000000000000000000000000000000000000000000000000000000000000000000000000000000000
9991966 1  3CONNECT 20001COMPTON    00000000011700000000000000000000000000000000000000000000000000000000000000000000000000000000000000000000000000000000000000000000000000000000000000000000000000000000
9991976 5  1RHODE I 10011CONDON, F.B00000000000000000000000000000000000000000000000000000000000000000000000000000000000000000000000000000000000000000000000000000000000000000000000000000000000000000000
9991977 71 6CALIFOR 10001CONDON     00000000000000000000000007700000000000000000000000000000000000000000000000000000000000000000000000000000000000000000000000000000000000000000000000000000000000000000
9991995 3  7MASSACH 10001CONNERY    00000636000000000000000000000000000000000000000000000000000000000000000000000000000000000000000000000000000000000000000000000000000000000000000000000000000000000000
9991996 3  7MASSACH 10001CONNERY, W.61161000000000000000000000000000000000000000000000000000000000000000000000000000000000000000000000000000000000000000000000000000000000000000000000000000000000000000
9992009 3  1MASSACH 20001CONTE      00100010000000000001010010111111111111111661111111199611191111166116661166616611111611111111166611111166111111100000000000000000000000000000000000000000000000000000
9992023 2411OHIO    10001COOK       00100010000000000001010010111111000000000000000000000000000000000000000000000000000000000000000000000000000000000000000000000000000000000000000000000000000000000000
9992032 47 4NORTH C 10001COOLEY, H.D16161611111777511757111717711111111110000000000000000000000000000000000000000000000000000000000000000000000000000000000000000000000000000000000000000000000000000000
9992038 72 2OREGON  20001COON       00100010000000000001010011110000000000000000000000000000000000000000000000000000000000000000000000000000000000000000000000000000000000000000000000000000000000000000
9992049 54 8TENNESS 10001COOPER, J. 16161616116611616161611111110000000000000000000000000000000000000000000000000000000000000000000000000000000000000000000000000000000000000000000000000000000000000000
9992051 2419OHIO    20001COOPER, J.G61125000000000000000000000000000000000000000000000000000000000000000000000000000000000000000000000000000000000000000000000000000000000000000000000000000000000000000
9992061 35 1NEBRASK 20001COPELAND   00000000100000000000000000000000000000000000000000000000000000000000000000000000000000000000000000000000000000000000000000000000000000000000000000000000000000000000
9992065 1430PENNSYL 20001CORBETT    00100611000017111661611117711111111111111111110000000000000000000000000000000000000000000000000000000000000000000000000000000000000000000000000000000000000000000000
9992074 1328NEW YOR 10001CORNING, P.16125000000000000000000000000000000000000000000000000000000000000000000000000000000000000000000000000000000000000000000000000000000000000000000000000000000000000000
9992081 7115CALIFOR 10001COSTELLO, J66116617111900000000000000000000000000000000000000000000000000000000000000000000000000000000000000000000000000000000000000000000000000000000000000000000000000000000
9992087 4  2NEW HAM 20001COTTON, N. 00100010000000111611116117700000000000000000000000000000000000000000000000000000000000000000000000000000000000000000000000000000000000000000000000000000000000000000
9992089 1317NEW YOR 20001COUDERT, F.00100010000000211511116711111000000000000000000000000000000000000000000000000000000000000000000000000000000000000000000000000000000000000000000000000000000000000000
9992093 54 6TENNESS 10022COURTNEY   00000676166711276000000000000000000000000000000000000000000000000000000000000000000000000000000000000000000000000000000000000000000000000000000000000000000000000000
9992111 44 2GEORGIA 10001COX, E.E.  16161617161117211261117610000000000000000000000000000000000000000000000000000000000000000000000000000000000000000000000000000000000000000000000000000000000000000000
9992143 43 1FLORIDA 20001CRAMER     00100010000000000001010010111111111611111111100000000000000000000000000000000000000000000000000000000000000000000000000000000000000000000000000000000000000000000000
9992156 42 4ARKANSA 10001CRAVENS, B.16161000000000000000000000000000000000000000000000000000000000000000000000000000000000000000000000000000000000000000000000000000000000000000000000000000000000000000
9992157 42 4ARKANSA 10022CRAVENS,W.F00000006111111111000000000000000000000000000000000000000000000000000000000000000000000000000000000000000000000000000000000000000000000000000000000000000000000000000
9992159 23 8MICHIGA 20001CRAWFORD, F61161611111111111616117660000000000000000000000000000000000000000000000000000000000000000000000000000000000000000000000000000000000000000000000000000000000000000000
9992168 51 4KENTUCK 10022CREAL, E.W.00100616100000000000000000000000000000000000000000000000000000000000000000000000000000000000000000000000000000000000000000000000000000000000000000000000000000000000
9992174 1  3CONNECT 20001CRETELLA   00100010000000000001010011111000000000000000000000000000000000000000000000000000000000000000000000000000000000000000000000000000000000000000000000000000000000000000
9992193 22 3INDIANA 10001CROOK, T.  00100010000000000161610000000000000000000000000000000000000000000000000000000000000000000000000000000000000000000000000000000000000000000000000000000000000000000000
9992195 1429PENNSYL 10001CROSBY, C.N16161000000000000000000000000000000000000000000000000000000000000000000000000000000000000000000000000000000000000000000000000000000000000000000000000000000000000000
9992198 4911TEXAS   10001CROSS, O.H.16161000000000000000000000000000000000000000000000000000000000000000000000000000000000000000000000000000000000000000000000000000000000000000000000000000000000000000
9992199 2421OHIO    10001CROSSER, R.61171617966611666777611111100000000000000000000000000000000000000000000000000000000000000000000000000000000000000000000000000000000000000000000000000000000000000000
9992206 1423PENNSYL 20001CROW, W.   00000000000000111000000000000000000000000000000000000000000000000000000000000000000000000000000000000000000000000000000000000000000000000000000000000000000000000000
9992207 22 9INDIANA 10001CROWE, E.B.16161611000000000000000000000000000000000000000000000000000000000000000000000000000000000000000000000000000000000000000000000000000000000000000000000000000000000000
9992215 1330NEW YOR 20001CROWTHER, F16116171100000000000000000000000000000000000000000000000000000000000000000000000000000000000000000000000000000000000000000000000000000000000000000000000000000000000
9992227 22 3INDIANA 20001CRUMPACKER,00100010000000000001016611170000000000000000000000000000000000000000000000000000000000000000000000000000000000000000000000000000000000000000000000000000000000000000
9992234 1332NEW YOR 20001CULKIN, F.D67711611100000000000000000000000000000000000000000000000000000000000000000000000000000000000000000000000000000000000000000000000000000000000000000000000000000000000
9992236 13 4NEW YOR 10001CULLEN, T.H16161616775000000000000000000000000000000000000000000000000000000000000000000000000000000000000000000000000000000000000000000000000000000000000000000000000000000000
9992249 62 2COLORAD 10001CUMMINGS, F16161617000000000000000000000000000000000000000000000000000000000000000000000000000000000000000000000000000000000000000000000000000000000000000000000000000000000000
9992255 35 2NEBRASK 20001CUNNINGHAM 00100010000000000001010010111111111611111111100000000000000000000000000000000000000000000000000000000000000000000000000000000000000000000000000000000000000000000000
9992256 31 6IOWA    20001CUNNINGHAM 00100010111117177621511711111000000000000000000000000000000000000000000000000000000000000000000000000000000000000000000000000000000000000000000000000000000000000000
9992257 1322NEW YOR 10022CURLEY, E.W00000470000000000000000000000000000000000000000000000000000000000000000000000000000000000000000000000000000000000000000000000000000000000000000000000000000000000000
9992258 3 11MASSACH 10001CURLEY     00000000077177000000000000000000000000000000000000000000000000000000000000000000000000000000000000000000000000000000000000000000000000000000000000000000000000000000
9992266 14 8PENNSYL 20001CURTIN     00100010000000000001010010111117111110000000000000000000000000000000000000000000000000000000000000000000000000000000000000000000000000000000000000000000000000000000
9992267 35 4NEBRASK 20001CURTIS     00100612111111111611116661100000000000000000000000000000000000000000000000000000000000000000000000000000000000000000000000000000000000000000000000000000000000000000
9992272 3 10MASSACH 20001CURTIS  L. 00100010000000000001010011111111000000000000000000000000000000000000000000000000000000000000000000000000000000000000000000000000000000000000000000000000000000000000
9992275 3412MISSOUR 20001CURTIS,    00100010000000000001016616161116111611100000000000000000000000000000000000000000000000000000000000000000000000000000000000000000000000000000000000000000000000000000
9992295 1  1CONNECT 10001DADDARIO   00100010000000000001010010111111711111111611100000000000000000000000000000000000000000000000000000000000000000000000000000000000000000000000000000000000000000000000
9992298 14 9PENNSYL 20001DAGUE, P.  00100010000000111611116111111111111110000000000000000000000000000000000000000000000000000000000000000000000000000000000000000000000000000000000000000000000000000000
9992304 52 3MARYLAN 10001D'ALESANDRO00100616161111000000000000000000000000000000000000000000000000000000000000000000000000000000000000000000000000000000000000000000000000000000000000000000000000000000
9992308 14 4PENNSYL 10001DALY, J.B. 16161000000000000000000000000000000000000000000000000000000000000000000000000000000000000000000000000000000000000000000000000000000000000000000000000000000000000000
9992329 1214NEW JER 10001DANIELS    00100010000000000001010010111111111111111111111611199611919111000000000000000000000000000000000000000000000000000000000000000000000000000000000000000000000000000000
9992335 40 2VIRGINI 10001DARDEN, C.W16677416000000000006060060666006000000060000600000000060000000000000000000000000000000000000000000006000000000000000000000000000000000000000000000000000000000000000
9992347 14 7PENNSYL 20001DARROW, G.P11116612000000000000000000000000000000000000000000000000000000000000000000000000000000000000000000000000000000000000000000000000000000000000000000000000000000000000
9992349 40 2VIRGINI 10022DAUGHTON   00000000000211000000000000000000000000000000000000000000000000000000000000000000000000000000000000000000000000000000000000000000000000000000000000000000000000000000
9992353 1429PENNSYL 10001DAVENPORT, 00100010000000000161610000000000000000000000000000000000000000000000000000000000000000000000000000000000000000000000000000000000000000000000000000000000000000000000
9992365 1320NEW YOR 10001DAVIDSON   00100010000000000001010010110000000000000000000000000000000000000000000000000000000000000000000000000000000000000000000000000000000000000000000000000000000000000000
9992371 1335NEW YOR 10001DAVIES, J. 00100010000000000761770000000000000000000000000000000000000000000000000000000000000000000000000000000000000000000000000000000000000000000000000000000000000000000000
9992376 54 9TENNESS 10022DAVIS      00100010116711116161111616177171111000000000000000000000000000000000000000000000000000000000000000000000000000000000000000000000000000000000000000000000000000000000
9992383 25 2WISCONS 20002DAVIS, G.R.00100010000000111611111111161001000111111111112169611991900000000000000000000000000000000000000000000000000000000000000000000000000000000000000000000000000000000000
9992388 24 6OHIO    10001DAVIS, J.  00000000100000000000000000000000000000000000000000000000000000000000000000000000000000000000000000000000000000000000000000000000000000000000000000000000000000000000
9992389 44 5GEORGIA 10001DAVIS, J.  00100010000000611666111776111177000000000000000000000000000000000000000000000000000000000000000000000000000000000000000000000000000000000000000000000000000000000000
9992430 67 2UTAH    20001DAWSON, W. 00100010000000711001010011111000000000000000000000000000000000000000000000000000000000000000000000000000000000000000000000000000000000000000000000000000000000000000
9992433 21 1ILLINOI 10001DAWSON     00100010096676576161771717171111111111799999900000000000000000000000000000000000000000000000000000000000000000000000000000000000000000000000000000000000000000000000
9992435 2199ILLINOI 20001DAY        00000000111100000000000000000000000000000000000000000000000000000000000000000000000000000000000000000000000000000000000000000000000000000000000000000000000000000000
9992448 47 8NORTH C 10001DEANE, C.  00100010000000516777117711170000000000000000000000000000000000000000000000000000000000000000000000000000000000000000000000000000000000000000000000000000000000000000
9992450 45 8LOUISIA 10001DEAR, C.   16167000000000000000000000000000000000000000000000000000000000000000000000000000000000000000000000000000000000000000000000000000000000000000000000000000000000000000
9992459 44 8GEORGIA 10001DEEN, B.   16161000000000000000000000000000000000000000000000000000000000000000000000000000000000000000000000000000000000000000000000000000000000000000000000000000000000000000
9992468 41 6ALABAMA 10001DEGRAFFENRI00100010000000000161777110000000000000000000000000000000000000000000000000000000000000000000000000000000000000000000000000000000000000000000000000000000000000000000
9992473 73 1WASHING 10001DELACY, H. 00000000000016000000000000000000000000000000000000000000000000000000000000000000000000000000000000000000000000000000000000000000000000000000000000000000000000000000
9992476 13 6NEW YOR 10001DELANEY, JA00100010000011000161617711111111111211111116111619999619111111161116661161161111100000000000000000000000000000000000000000000000000000000000000000000000000000000000
9992477 13 7NEW YOR 10001DELANEY, J.16161636776517566000000000000000000000000000000000000000000000000000000000000000000000000000000000000000000000000000000000000000000000000000000000000000000000000000
9992484 1214NEW JER 20001DELLAY     00000000000000000000000000000000000000000000000000000000000000000000000000000000000000000000000000000000000000000000000000000000000000000000000000000000000000000000
9992490 66 1NEW MEX 10001DEMPSEY, J.16161616000000000001011116110000000000000000000000000000000000000000000000000000000000000000000000000000000000000000000000000000000000000000000000000000000000000000
9992504 2411OHIO    20001DENNISON   00100010000000000001010010111000000000000000000000000000000000000000000000000000000000000000000000000000000000000000000000000000000000000000000000000000000000000000
9992507 1429PENNSYL 20001DENNY,     00100010000000000001016110000000000000000000000000000000000000000000000000000000000000000000000000000000000000000000000000000000000000000000000000000000000000000000
9992513 1421PENNSYL 10022DENT       00100010000000000001010010111111711111111116119691299619691111991116691661999991900000000000000000000000000000000000000000000000000000000000000000000000000000000000
9992517 22 8INDIANA 10001DENTON, W. 00100010000000000161617110111171111110000000000000000000000000000000000000000000000000000000000000000000000000000000000000000000000000000000000000000000000000000000
9992522 45 7LOUISIA 10001DEROUEN, R.75161616000000000000000000000000000000000000000000000000000000000000000000000000000000000000000000000000000000000000000000000000000000000000000000000000000000000000
9992523 13 2NEW YOR 20001DEROUNIAN  00100010000000000001010011111111111000000000000000000000000000000000000000000000000000000000000000000000000000000000000000000000000000000000000000000000000000000000
9992525 21 4ILLINOI 20001DERWINSKI  00100010000000000001010010111111761611111611115919599111111191116111661166116611116611111111100000000000000000000000000000000000000000000000000000000000000000000000
9992531 52 2MARYLAN 20001DEVEREUX,  00100010000000000001011661111000000000000000000000000000000000000000000000000000000000000000000000000000000000000000000000000000000000000000000000000000000000000000
9992533 2412OHIO    20001DEVINE     00100010000000000001010010111111161611111119916111669119111191666111111166616696116111100000000000000000000000000000000000000000000000000000000000000000000000000000
9992534 33 4MINNESO 20001DEVITT, E. 00000000000000111000000000000000000000000000000000000000000000000000000000000000000000000000000000000000000000000000000000000000000000000000000000000000000000000000
9992538 64 2MONTANA 20022D'EWART, W.00100010000011111611776711100000000000000000000000000000000000000000000000000000000000000000000000000000000000000000000000000000000000000000000000000000000000000000
9992541 21 9ILLINOI 20001DEWEY      00000000111100000000000000000000000000000000000000000000000000000000000000000000000000000000000000000000000000000000000000000000000000000000000000000000000000000000
9992585 1312NEW YOR 10001DICKSTEIN, 15261676196577000000000000000000000000000000000000000000000000000000000000000000000000000000000000000000000000000000000000000000000000000000000000000000000000000000
9992588 49 2TEXAS   10001DIES, M.   15261477111900000001010016167000000000000000000000000000000000000000000000000000000000000000000000000000000000000000000000000000000000000000000000000000000000000000
9992590 1415PENNSYL 10001DIETRICH, C16161000000000000000000000000000000000000000000000000000000000000000000000000000000000000000000000000000000000000000000000000000000000000000000000000000000000000000
9992594 2313MICHIGA 10001DIGGS      00100010000000000001010010112117711117711616196911111111111961961116691661111199119619000000000000000000000000000000000000000000000000000000000000000000000000000000
9992599 25 8WISCONS 10001DILWEG     00000000066100000000000000000000000000000000000000000000000000000000000000000000000000000000000000000000000000000000000000000000000000000000000000000000000000000000
9992604 2315MICHIGA 10001DINGELL, J.16161616116617556777571117270000000000000000000000000000000000000000000000000000000000000000000000000000000000000000000000000000000000000000000000000000000000000000
9992605 2315MICHIGA 10022DINGELL JR.00100010000000000001010010111117111111191116111611111111611991161116661661161111111111161111169611111166111116111119161111611911661661111661616161111166111116111111
9992609 2116ILLINOI 20001DIRKSEN, E.61116611172771711000000000000000000000000000000000000000000000000000000000000000000000000000000000000000000000000000000000000000000000000000000000000000000000000000
9992611 53 1OKLAHOM 10001DISNEY, W.E16161617111100000000000000000000000000000000000000000000000000000000000000000000000000000000000000000000000000000000000000000000000000000000000000000000000000000000
9992612 1417PENNSYL 20001DITTER, J.W11116631100000000000000000000000000000000000000000000000000000000000000000000000000000000000000000000000000000000000000000000000000000000000000000000000000000000000
9992616 67 1UTAH    20001DIXON      00100010000000000001010010111110000000000000000000000000000000000000000000000000000000000000000000000000000000000000000000000000000000000000000000000000000000000000
9992629 2119ILLINOI 10001DOBBINS, D.16167000000000000000000000000000000000000000000000000000000000000000000000000000000000000000000000000000000000000000000000000000000000000000000000000000000000000000
9992634 7116CALIFOR 10001DOCKWEILER 66161000000000000000000000000000000000000000000000000000000000000000000000000000000000000000000000000000000000000000000000000000000000000000000000000000000000000000
9992636 1  1CONNECT 10001DODD       00100010000000000001010017110000000000000000000000000000000000000000000000000000000000000000000000000000000000000000000000000000000000000000000000000000000000000000
9992646 1324NEW YOR 10001DOLLINGER, 00100010000000000161617711111000000000000000000000000000000000000000000000000000000000000000000000000000000000000000000000000000000000000000000000000000000000000000
9992647 31 6IOWA    20001DOLLIVER,  00100010000011117611116617710000000000000000000000000000000000000000000000000000000000000000000000000000000000000000000000000000000000000000000000000000000000000000
9992650 45 3LOUISIA 10001DOMENGEAUX 00000000197711711000000000000000000000000000000000000000000000000000000000000000000000000000000000000000000000000000000000000000000000000000000000000000000000000000
9992653 2317MICHIGA 20001DONDERO, G.11116611111111112611116611110000000000000000000000000000000000000000000000000000000000000000000000000000000000000000000000000000000000000000000000000000000000000000
9992660 3  4MASSACH 10001DONOHUE, H.00100010000000111757611117111111111111111611112611111611100000000000000000000000000000000000000000000000000000000000000000000000000000000000000000000000000000000000
9992662 1318NEW YOR 10001DONOVAN,   00100010000000000001017111110000000000000000000000000000000000000000000000000000000000000000000000000000000000000000000000000000000000000000000000000000000000000000
9992665 1326NEW YOR 20001DOOLEY     00100010000000000001010010111111000000000000000000000000000000000000000000000000000000000000000000000000000000000000000000000000000000000000000000000000000000000000
9992671 1312NEW YOR 20001DORN  F.   00100010000000000001010011111110000000000000000000000000000000000000000000000000000000000000000000000000000000000000000000000000000000000000000000000000000000000000
9992672 48 3SOUTH C 10001DORN, W.   00100010000000117001016116111661711111111616611611111191900000000000000000000000000000000000000000000000000000000000000000000000000000000000000000000000000000000000
9992675 14 5PENNSYL 10001DORSEY, F.J16161000000000000000000000000000000000000000000000000000000000000000000000000000000000000000000000000000000000000000000000000000000000000000000000000000000000000000
9992684 47 9NORTH C 10001DOUGHTON, R16161616111111111161111110000000000000000000000000000000000000000000000000000000000000000000000000000000000000000000000000000000000000000000000000000000000000000000
9992687 2199ILLINOI 10001DOUGLAS, E.00000000000071000000000000000000000000000000000000000000000000000000000000000000000000000000000000000000000000000000000000000000000000000000000000000000000000000000
9992688 1333NEW YOR 20001DOUGLAS    00000631172200000000000000000000000000000000000000000000000000000000000000000000000000000000000000000000000000000000000000000000000000000000000000000000000000000000
9992689 7114CALIFOR 10001DOUGLAS, H.00100010000011616261610000000000000000000000000000000000000000000000000000000000000000000000000000000000000000000000000000000000000000000000000000000000000000000000
9992695 1419PENNSYL 20001DOUTRICH, I62225000000000000000000000000000000000000000000000000000000000000000000000000000000000000000000000000000000000000000000000000000000000000000000000000000000000000000
9992700 49 7TEXAS   10001DOWDY      00100010000000000001010016111111111991111691199999000000000000000000000000000000000000000000000000000000000000000000000000000000000000000000000000000000000000000000
9992701 31 6IOWA    20011DOWELL     00100111000000000000000000000000000000000000000000000000000000000000000000000000000000000000000000000000000000000000000000000000000000000000000000000000000000000000
9992706 40 1VIRGINI 10001DOWNING    00100010000000000001010010111111111211111616119611611111611161000000000000000000000000000000000000000000000000000000000000000000000000000000000000000000000000000000
9992707 1  4CONNECT 10001DOWNS      00000000100000000000000000000000000000000000000000000000000000000000000000000000000000000000000000000000000000000000000000000000000000000000000000000000000000000000
9992712 46 2MISSISS 10001DOXEY, W.  16161617000000000000000000000000000000000000000000000000000000000000000000000000000000000000000000000000000000000000000000000000000000000000000000000000000000000000
9992713 7118CALIFOR 10001DOYLE, C.  00100010000016000161611717711131000000000000000000000000000000000000000000000000000000000000000000000000000000000000000000000000000000000000000000000000000000000000
9992726 40 4VIRGINI 10001DREWRY, P.H16161617111171000000000000000000000000000000000000000000000000000000000000000000000000000000000000000000000000000000000000000000000000000000000000000000000000000000
9992730 1420PENNSYL 10001DRISCOLL, D16177000000000000000000000000000000000000000000000000000000000000000000000000000000000000000000000000000000000000000000000000000000000000000000000000000000000000000
9992732 42 1ARKANSA 10001DRIVER, W.J16161000000000000000000000000000000000000000000000000000000000000000000000000000000000000000000000000000000000000000000000000000000000000000000000000000000000000000
9992746 24 9OHIO    10001DUFFEY, W.J16171000000000000000000000000000000000000000000000000000000000000000000000000000000000000000000000000000000000000000000000000000000000000000000000000000000000000000
9992748 1338NEW YOR 10001DUFFY, J.P.16117000000000000000000000000000000000000000000000000000000000000000000000000000000000000000000000000000000000000000000000000000000000000000000000000000000000000000
9992752 1341NEW YOR 10001DULSKI     00100010000000000001010010111171311611111111131631111619100000000000000000000000000000000000000000000000000000000000000000000000000000000000000000000000000000000000
9992761 34 3MISSOUR 10001DUNCAN, R.M16161616100000000000000000000000000000000000000000000000000000000000000000000000000000000000000000000000000000000000000000000000000000000000000000000000000000000000
9992770 46 5MISSISS 10001DUNN, A.C. 16171000000000000000000000000000000000000000000000000000000000000000000000000000000000000000000000000000000000000000000000000000000000000000000000000000000000000000
9992774 1434PENNSYL 10001DUNN, M.A. 61161816000000000000000000000000000000000000000000000000000000000000000000000000000000000000000000000000000000000000000000000000000000000000000000000000000000000000
9992791 47 6NORTH C 10001DURHAM     00100616111111716161777717171770000000000000000000000000000000000000000000000000000000000000000000000000000000000000000000000000000000000000000000000000000000000000
9992803 63 2IDAHO   20001DWORSHAK   00100612161111000000000000000000000000000000000000000000000000000000000000000000000000000000000000000000000000000000000000000000000000000000000000000000000000000000
9992804 12 6NEW JER 20001DWYER      00100010000000000001010010111111111111111111111699000000000000000000000000000000000000000000000000000000000000000000000000000000000000000000000000000000000000000000
9992810 49 8TEXAS   10001EAGLE, J.H.16161000000000000000000000000000000000000000000000000000000000000000000000000000000000000000000000000000000000000000000000000000000000000000000000000000000000000000
9992812 2499OHIO    10052EARHART, D.00000000000000000000000000000000000000000000000000000000000000000000000000000000000000000000000000000000000000000000000000000000000000000000000000000000000000000000
9992821 54 5TENNESS 10001EARTHMAN,  00000000000011000000000000000000000000000000000000000000000000000000000000000000000000000000000000000000000000000000000000000000000000000000000000000000000000000000
9992827 12 5NEW JER 20001EATON, C.A.11115611111111721616271610000000000000000000000000000000000000000000000000000000000000000000000000000000000000000000000000000000000000000000000000000000000000000000
9992830 7118CALIFOR 20001EATON, T.  00100110000000000000000000000000000000000000000000000000000000000000000000000000000000000000000000000000000000000000000000000000000000000000000000000000000000000000
9992833 1432PENNSYL 10001EBERHARTER 00100616116617666161617111177000000000000000000000000000000000000000000000000000000000000000000000000000000000000000000000000000000000000000000000000000000000000000
9992835 1426PENNSYL 10001ECKERT, C.R16161000000000000000000000000000000000000000000000000000000000000000000000000000000000000000000000000000000000000000000000000000000000000000000000000000000000000000
9992842 1314NEW YOR 10022EDELSTEIN  00000000000000000000000000000000000000000000000000000000000000000000000000000000000000000000000000000000000000000000000000000000000000000000000000000000000000000000
9992851 56 3WEST VI 10001EDMISTON, A16161716100000000000000000000000000000000000000000000000000000000000000000000000000000000000000000000000000000000000000000000000000000000000000000000000000000000000
9992854 53 2OKLAHOM 10001EDMONDSON  00100010000000000001010011111711111111111116112699000000000000000000000000000000000000000000000000000000000000000000000000000000000000000000000000000000000000000000
9992884 31 1IOWA    10001EICHER, E.C16177000000000000000000000000000000000000000000000000000000000000000000000000000000000000000000000000000000000000000000000000000000000000000000000000000000000000000
9992887 72 3OREGON  20001EKWALL, W.A61116000000000000000000000000000000000000000000000000000000000000000000000000000000000000000000000000000000000000000000000000000000000000000000000000000000000000000
9992896 3  9MASSACH 10001ELIOT      00000000100000000000000000000000000000000000000000000000000000000000000000000000000000000000000000000000000000000000000000000000000000000000000000000000000000000000
9992900 1433PENNSYL 10001ELLENBORGEN16161000000000000000000000000000000000000000000000000000000000000000000000000000000000000000000000000000000000000000000000000000000000000000000000000000000000000000
9992908 7110CALIFOR 10001ELLIOTT    00100116111171171000000000000000000000000000000000000000000000000000000000000000000000000000000000000000000000000000000000000000000000000000000000000000000000000000
9992909 41 7ALABAMA 10001ELLIOTT, C.00100010000000000161611117711111111000000000000000000000000000000000000000000000000000000000000000000000000000000000000000000000000000000000000000000000000000000000
9992910 1418PENNSYL 20022ELLIOTT  D.00000000000000000000000000000000000000000000000000000000000000000000000000000000000000000000000000000000000000000000000000000000000000000000000000000000000000000000
9992921 42 3ARKANSA 10001ELLIS      00100116700000000000000000000000000000000000000000000000000000000000000000000000000000000000000000000000000000000000000000000000000000000000000000000000000000000000
9992924 56 4WEST VI 20001ELLIS      00000000011111111000000000000000000000000000000000000000000000000000000000000000000000000000000000000000000000000000000000000000000000000000000000000000000000000000
9992930 52 4MARYLAN 20001ELLISON    00000000061700000000000000000000000000000000000000000000000000000000000000000000000000000000000000000000000000000000000000000000000000000000000000000000000000000000
9992935 72 4OREGON  20001ELLSWORTH  00100010011177111611116611110000000000000000000000000000000000000000000000000000000000000000000000000000000000000000000000000000000000000000000000000000000000000000
9992945 34 8MISSOUR 20001ELMER      00000000071100000000000000000000000000000000000000000000000000000000000000000000000000000000000000000000000000000000000000000000000000000000000000000000000000000000
9992947 1343NEW YOR 20001ELSAESSER  00000000000011111000000000000000000000000000000000000000000000000000000000000000000000000000000000000000000000000000000000000000000000000000000000000000000000000000
9992948 24 1OHIO    20001ELSTON     00100611111211111577116660000000000000000000000000000000000000000000000000000000000000000000000000000000000000000000000000000000000000000000000000000000000000000000
9992963 23 9MICHIGA 20001ENGEL, A.J.61116611111611111661570000000000000000000000000000000000000000000000000000000000000000000000000000000000000000000000000000000000000000000000000000000000000000000000
9992965 71 2CALIFOR 10022ENGEL, C.  00100010066111176777611712211000000000000000000000000000000000000000000000000000000000000000000000000000000000000000000000000000000000000000000000000000000000000000
9992966 71 2CALIFOR 20001ENGELBRIGHT61177111100000000000000000000000000000000000000000000000000000000000000000000000000000000000000000000000000000000000000000000000000000000000000000000000000000000000
9992986 4710NORTH C 10011ERVIN, J.W.00000000000017000000000000000000000000000000000000000000000000000000000000000000000000000000000000000000000000000000000000000000000000000000000000000000000000000000
9992987 4710NORTH C 10022ERVIN, S.J.00000000000000000000000000000000000000000000000000000000000000000000000000000000000000000000000000000000000000000000000000000000000000000000000000000000000000000000
9993018 13 5NEW YOR 10001EVANS, M.H.16161616000000000000000000000000000000000000000000000000000000000000000000000000000000000000000000000000000000000000000000000000000000000000000000000000000000000000
9993028 54 8TENNESS 10022EVERETT    00100010000000000001010010111111111917100000000000000000000000000000000000000000000000000000000000000000000000000000000000000000000000000000000000000000000000000000
9993034 54 5TENNESS 10001EVINS, J.  00100010000000616161611171111111177111119116111691999119619119000000000000000000000000000000000000000000000000000000000000000000000000000000000000000000000000000000
9993044 1425PENNSYL 10001FADDIS, C.I16161616100000000000000000000000000000000000000000000000000000000000000000000000000000000000000000000000000000000000000000000000000000000000000000000000000000000000
9993054 52 4MARYLAN 10001FALLON, G. 00100010000011611111611611111111711111111116100000000000000000000000000000000000000000000000000000000000000000000000000000000000000000000000000000000000000000000000
9993056 1319NEW YOR 10001FARBSTEIN  00100010000000000001010010111111111191119611100000000000000000000000000000000000000000000000000000000000000000000000000000000000000000000000000000000000000000000000
9993060 22 4INDIANA 10001FARLEY, J.I16161000000000000000000000000000000000000000000000000000000000000000000000000000000000000000000000000000000000000000000000000000000000000000000000000000000000000000
9993078 43 4FLORIDA 10001FASCELL    00100010000000000001010010111111711111111116111611911111111911166116661161161111191111161999161619111166111111191111100000000000000000000000000000000000000000000000
9993085 1316NEW YOR 10001FAY        00000677075500000000000000000000000000000000000000000000000000000000000000000000000000000000000000000000000000000000000000000000000000000000000000000000000000000000
9993092 2420OHIO    10001FEIGHAN    00100010076617676777611111117111711111111116100000000000000000000000000000000000000000000000000000000000000000000000000000000000000000000000000000000000000000000000
9993096 2  3MAINE   20001FELLOWS    00100000111111111527110000000000000000000000000000000000000000000000000000000000000000000000000000000000000000000000000000000000000000000000000000000000000000000000
9993101 14 3PENNSYL 20001FENERTY, C.11125000000000000000000000000000000000000000000000000000000000000000000000000000000000000000000000000000000000000000000000000000000000000000000000000000000000000000
9993105 1413PENNSYL 20001FENTON     00100611111211111611111621111112000000000000000000000000000000000000000000000000000000000000000000000000000000000000000000000000000000000000000000000000000000000000
9993111 53 8OKLAHOM 10001FERGUSON, P16161616000000000000000000000000000000000000000000000000000000000000000000000000000000000000000000000000000000000000000000000000000000000000000000000000000000000000
9993114 6698NEW MEX 10001FERNANDEZ  00100010091177616161616616170000000000000000000000000000000000000000000000000000000000000000000000000000000000000000000000000000000000000000000000000000000000000000
9993115 45 1LOUISIA 10001FERNANDEZ, 11177617000000000000000000000000000000000000000000000000000000000000000000000000000000000000000000000000000000000000000000000000000000000000000000000000000000000000
9993139 2413OHIO    10001FIESINGER, 16161000000000000000000000000000000000000000000000000000000000000000000000000000000000000000000000000000000000000000000000000000000000000000000000000000000000000000
9993149 1323NEW YOR 10001FINE       00100010000000000001017711110000000000000000000000000000000000000000000000000000000000000000000000000000000000000000000000000000000000000000000000000000000000000000
9993158 1325NEW YOR 20001FINO       00100010000000000001010011111111111191100000000000000000000000000000000000000000000000000000000000000000000000000000000000000000000000000000000000000000000000000000
9993162 1326NEW YOR 20001FISH, H.   72216631171100000000000000000000000000000000000000000000000000000000000000000000000000000000000000000000000000000000000000000000000000000000000000000000000000000000
9993171 4921TEXAS   10001FISHER     00100010011111117161116616611611111611111666611169599166600000000000000000000000000000000000000000000000000000000000000000000000000000000000000000000000000000000000
9993187 1  2CONNECT 10001FITZGERALD 00000000100000000000000000000000000000000000000000000000000000000000000000000000000000000000000000000000000000000000000000000000000000000000000000000000000000000000
9993193 1324NEW YOR 10001FITZPATRICK16152777166500000000000000000000000000000000000000000000000000000000000000000000000000000000000000000000000000000000000000000000000000000000000000000000000000000000
9993197 64 2MONTANA 20001FJARE      00000000000000000000000000060000000000000000000000000000000000000000000000000000000000000000000000000000000000000000000000000000000000000000000000000000000000000000
9993201 3 11MASSACH 10001FLAHERTY   00100616100000000000000000000000000000000000000000000000000000000000000000000000000000000000000000000000000000000000000000000000000000000000000000000000000000000000
9993207 40 9VIRGINI 10001FLANNAGAN, 76161616196611776000000000000000000000000000000000000000000000000000000000000000000000000000000000000000000000000000000000000000000000000000000000000000000000000000
9993208 1412PENNSYL 10001FLANNERY   00100616000000000000000000000000000000000000000000000000000000000000000000000000000000000000000000000000000000000000000000000000000000000000000000000000000000000000
9993215 7123CALIFOR 20001FLETCHER,  00000000000000111000000000000000000000000000000000000000000000000000000000000000000000000000000000000000000000000000000000000000000000000000000000000000000000000000
9993221 24 8OHIO    10001FLETCHER, B16161000000000000000000000000000000000000000000000000000000000000000000000000000000000000000000000000000000000000000000000000000000000000000000000000000000000000000
9993224 1411PENNSYL 10001FLOOD, D.J.00100010000017000777611110111111111111111119911611111611111111161116661661161111199990000000000000000000000000000000000000000000000000000000000000000000000000000000
9993240 25 1WISCONS 10001FLYNN      00000000000000000000000000000110000000000000000000000000000000000000000000000000000000000000000000000000000000000000000000000000000000000000000000000000000000000000
9993242 44 4GEORGIA 10001FLYNT      00100010000000000001010010171671111117111666616191611111691191616111161161116696100000000000000000000000000000000000000000000000000000000000000000000000000000000000
9993243 1418PENNSYL 20001FOCHT, B.K.11116000000000000000000000000000000000000000000000000000000000000000000000000000000000000000000000000000000000000000000000000000000000000000000000000000000000000000
9993246 5  2RHODE I 10001FOGARTY    00100010166611656161611711111111171110000000000000000000000000000000000000000000000000000000000000000000000000000000000000000000000000000000000000000000000000000000
9993249 52 6MARYLAN 10001FOLEY      00000000000000000000000000000110000000000000000000000000000000000000000000000000000000000000000000000000000000000000000000000000000000000000000000000000000000000000
9993250 47 5NORTH C 10001FOLGER     00100615000000000000000000000000000000000000000000000000000000000000000000000000000000000000000000000000000000000000000000000000000000000000000000000000000000000000
9993251 47 5NORTH C 10022FOLGER     00000000161116611000000000000000000000000000000000000000000000000000000000000000000000000000000000000000000000000000000000000000000000000000000000000000000000000000
9993258 1  3CONNECT 20001FOOTE, E.B.00000000000000112000000000000000000000000000000000000000000000000000000000000000000000000000000000000000000000000000000000000000000000000000000000000000000000000000
9993264 5  1RHODE I 10001FORAND     00100010116611666161611111111110000000000000000000000000000000000000000000000000000000000000000000000000000000000000000000000000000000000000000000000000000000000000
9993266 46 4MISSISS 10001FORD, A.L. 16161616100000000000000000000000000000000000000000000000000000000000000000000000000000000000000000000000000000000000000000000000000000000000000000000000000000000000
9993268 23 5MICHIGA 20001FORD, G.   00100010000000000611116611111111711111111111192131611110000000000000000000000000000000000000000000000000000000000000000000000000000000000000000000000000000000000000
9993270 7116CALIFOR 20001FORD,L.M.  00100111100000000000000000000000000000000000000000000000000000000000000000000000000000000000000000000000000000000000000000000000000000000000000000000000000000000000
9993273 7114CALIFOR 10001FORD, T.F. 16161117196900000000000000000000000000000000000000000000000000000000000000000000000000000000000000000000000000000000000000000000000000000000000000000000000000000000
9993286 44 3GEORGIA 10001FORRESTER, 00100010000000000001016616111111111000000000000000000000000000000000000000000000000000000000000000000000000000000000000000000000000000000000000000000000000000000000
9993321 47 2NORTH C 10001FOUNTAIN   00100010000000000001010016111111111611711616116111611111611111611111161161166611116111161111100000000000000000000000000000000000000000000000000000000000000000000000
9993346 54 3TENNESS 10001FRAZIER, J.00100010000000000161616616111711000000000000000000000000000000000000000000000000000000000000000000000000000000000000000000000000000000000000000000000000000000000000
9993364 12 5NEW JER 20001FRELINGHUYS00100010000000000001010011111111711111111111111191611619600000000000000000000000000000000000000000000000000000000000000000000000000000000000000000000000000000000000
9993372 14 9PENNSYL 10001FREY, O.W. 16161000000000000000000000000000000000000000000000000000000000000000000000000000000000000000000000000000000000000000000000000000000000000000000000000000000000000000
9993374 52 7MARYLAN 10001FRIEDEL    00100010000000000001010011117111111111111116100000000000000000000000000000000000000000000000000000000000000000000000000000000000000000000000000000000000000000000000
9993375 2121ILLINOI 10001FRIES      00100116000000000000000000000000000000000000000000000000000000000000000000000000000000000000000000000000000000000000000000000000000000000000000000000000000000000000
9993386 40 9VIRGINI 10001FUGATE, T. 00100010000000000161116610000000000000000000000000000000000000000000000000000000000000000000000000000000000000000000000000000000000000000000000000000000000000000000
9993388 42 3ARKANSA 10001FULBRIGHT  00000000067100000000000000000000000000000000000000000000000000000000000000000000000000000000000000000000000000000000000000000000000000000000000000000000000000000000
9993394 42 3ARKANSA 10001FULLER, C.A16161000000000000000000000000000000000000000000000000000000000000000000000000000000000000000000000000000000000000000000000000000000000000000000000000000000000000000
9993396 1332NEW YOR 20022FULLER, H. 00000000091111111000000000000000000000000000000000000000000000000000000000000000000000000000000000000000000000000000000000000000000000000000000000000000000000000000
9993404 48 2SOUTH C 10001FULMER, H.P16161611199000000000000000000000000000000000000000000000000000000000000000000000000000000000000000000000000000000000000000000000000000000000000000000000000000000000
9993405 48 2SOUTH C 10022FULMER     00000000000100000000000000000000000000000000000000000000000000000000000000000000000000000000000000000000000000000000000000000000000000000000000000000000000000000000
9993409 1431PENNSYL 20001FULTON, J. 00100010000017616661611117111111311111111611116000000000000000000000000000000000000000000000000000000000000000000000000000000000000000000000000000000000000000000000
9993415 3  2MASSACH 10001FURCOLO, F.00100010000000000161611110000000000000000000000000000000000000000000000000000000000000000000000000000000000000000000000000000000000000000000000000000000000000000000
9993416 1425PENNSYL 10001FURLONG    00000000076900000000000000000000000000000000000000000000000000000000000000000000000000000000000000000000000000000000000000000000000000000000000000000000000000000000
9993432 33 3MINNESO 20001GALE       00000000171600000000000000000000000000000000000000000000000000000000000000000000000000000000000000000000000000000000000000000000000000000000000000000000000000000000
9993433 1213NEW JER 10001GALLAGHER  00100010000000000001010010111111111117111911119699000000000000000000000000000000000000000000000000000000000000000000000000000000000000000000000000000000000000000000
9993434 14 1PENNSYL 20001GALLAGHER  00000000071200717000000000000000000000000000000000000000000000000000000000000000000000000000000000000000000000000000000000000000000000000000000000000000000000000000
9993436 33 3MINNESO 10001GALLAGHER, 00000000000011000000000000000000000000000000000000000000000000000000000000000000000000000000000000000000000000000000000000000000000000000000000000000000000000000000
9993446 1325NEW YOR 20001GAMBLE     00100611172111111611117111110000000000000000000000000000000000000000000000000000000000000000000000000000000000000000000000000000000000000000000000000000000000000000
9993449 52 5MARYLAN 10001GAMBRILL, S77761000000000000000000000000000000000000000000000000000000000000000000000000000000000000000000000000000000000000000000000000000000000000000000000000000000000000000
9993464 24 3OHIO    10001GARDNER, E.00000000000017000000000000000000000000000000000000000000000000000000000000000000000000000000000000000000000000000000000000000000000000000000000000000000000000000000
